{"contracts/VehiclePassport.sol":{"VehiclePassport":{"abi":[{"inputs":[],"stateMutability":"nonpayable","type":"constructor"},{"inputs":[],"name":"AccessControlBadConfirmation","type":"error"},{"inputs":[{"internalType":"address","name":"account","type":"address"},{"internalType":"bytes32","name":"neededRole","type":"bytes32"}],"name":"AccessControlUnauthorizedAccount","type":"error"},{"anonymous":false,"inputs":[{"indexed":false,"internalType":"bytes17","name":"vin","type":"bytes17"},{"indexed":false,"internalType":"string","name":"photoCid","type":"string"},{"indexed":false,"internalType":"string","name":"descCid","type":"string"}],"name":"AccidentReported","type":"event"},{"anonymous":false,"inputs":[{"indexed":false,"internalType":"bytes17","name":"vin","type":"bytes17"},{"indexed":false,"internalType":"string","name":"cid","type":"string"},{"indexed":false,"internalType":"bytes32","name":"summaryCid","type":"bytes32"}],"name":"DiagnosticAdded","type":"event"},{"anonymous":false,"inputs":[{"indexed":false,"internalType":"bytes17","name":"vin","type":"bytes17"},{"indexed":false,"internalType":"bool","name":"passed","type":"bool"},{"indexed":false,"internalType":"string","name":"cid","type":"string"}],"name":"InspectionAdded","type":"event"},{"anonymous":false,"inputs":[{"indexed":false,"internalType":"bytes17","name":"vin","type":"bytes17"},{"indexed":false,"internalType":"bytes32","name":"partCid","type":"bytes32"},{"indexed":false,"internalType":"bytes32","name":"noteCid","type":"bytes32"}],"name":"MaintenanceAdded","type":"event"},{"anonymous":false,"inputs":[{"indexed":true,"internalType":"bytes17","name":"vin","type":"bytes17"},{"indexed":true,"internalType":"address","name":"from","type":"address"},{"indexed":true,"internalType":"address","name":"to","type":"address"}],"name":"OwnershipTransferred","type":"event"},{"anonymous":false,"inputs":[{"indexed":true,"internalType":"bytes32","name":"role","type":"bytes32"},{"indexed":true,"internalType":"bytes32","name":"previousAdminRole","type":"bytes32"},{"indexed":true,"internalType":"bytes32","name":"newAdminRole","type":"bytes32"}],"name":"RoleAdminChanged","type":"event"},{"anonymous":false,"inputs":[{"indexed":true,"internalType":"bytes32","name":"role","type":"bytes32"},{"indexed":true,"internalType":"address","name":"account","type":"address"},{"indexed":true,"internalType":"address","name":"sender","type":"address"}],"name":"RoleGranted","type":"event"},{"anonymous":false,"inputs":[{"indexed":true,"internalType":"bytes32","name":"role","type":"bytes32"},{"indexed":true,"internalType":"address","name":"account","type":"address"},{"indexed":true,"internalType":"address","name":"sender","type":"address"}],"name":"RoleRevoked","type":"event"},{"anonymous":false,"inputs":[{"indexed":true,"internalType":"bytes17","name":"vin","type":"bytes17"},{"indexed":true,"internalType":"address","name":"owner","type":"address"}],"name":"VehicleRegistered","type":"event"},{"inputs":[],"name":"DEFAULT_ADMIN_ROLE","outputs":[{"internalType":"bytes32","name":"","type":"bytes32"}],"stateMutability":"view","type":"function"},{"inputs":[],"name":"MECHANIC_ROLE","outputs":[{"internalType":"bytes32","name":"","type":"bytes32"}],"stateMutability":"view","type":"function"},{"inputs":[],"name":"POLICE_ROLE","outputs":[{"internalType":"bytes32","name":"","type":"bytes32"}],"stateMutability":"view","type":"function"},{"inputs":[{"internalType":"bytes17","name":"","type":"bytes17"},{"internalType":"uint256","name":"","type":"uint256"}],"name":"accs","outputs":[{"internalType":"uint40","name":"ts","type":"uint40"},{"internalType":"string","name":"accIpfs","type":"string"},{"internalType":"string","name":"desc","type":"string"},{"internalType":"address","name":"reporter","type":"address"}],"stateMutability":"view","type":"function"},{"inputs":[{"internalType":"bytes17","name":"vin","type":"bytes17"},{"internalType":"string","name":"cid","type":"string"},{"internalType":"bytes32","name":"summaryCid","type":"bytes32"},{"internalType":"uint32","name":"mileage","type":"uint32"}],"name":"addDiagnostic","outputs":[],"stateMutability":"nonpayable","type":"function"},{"inputs":[{"internalType":"bytes17","name":"vin","type":"bytes17"},{"internalType":"bool","name":"passed","type":"bool"},{"internalType":"string","name":"cid","type":"string"},{"internalType":"uint32","name":"mileage","type":"uint32"}],"name":"addInspection","outputs":[],"stateMutability":"nonpayable","type":"function"},{"inputs":[{"internalType":"bytes17","name":"vin","type":"bytes17"},{"internalType":"bytes32","name":"partCid","type":"bytes32"},{"internalType":"string","name":"partIpfs","type":"string"},{"internalType":"bytes32","name":"noteCid","type":"bytes32"},{"internalType":"uint32","name":"mileage","type":"uint32"}],"name":"addMaintenance","outputs":[],"stateMutability":"nonpayable","type":"function"},{"inputs":[{"internalType":"bytes17","name":"","type":"bytes17"},{"internalType":"uint256","name":"","type":"uint256"}],"name":"diags","outputs":[{"internalType":"uint40","name":"ts","type":"uint40"},{"internalType":"string","name":"digIpfs","type":"string"},{"internalType":"bytes32","name":"summary","type":"bytes32"},{"internalType":"address","name":"mechanic","type":"address"}],"stateMutability":"view","type":"function"},{"inputs":[{"internalType":"bytes17","name":"vin","type":"bytes17"}],"name":"getAccidents","outputs":[{"components":[{"internalType":"uint40","name":"ts","type":"uint40"},{"internalType":"string","name":"accIpfs","type":"string"},{"internalType":"string","name":"desc","type":"string"},{"internalType":"address","name":"reporter","type":"address"}],"internalType":"struct VehiclePassport.Accident[]","name":"","type":"tuple[]"}],"stateMutability":"view","type":"function"},{"inputs":[{"internalType":"bytes17","name":"vin","type":"bytes17"}],"name":"getDiagnostics","outputs":[{"components":[{"internalType":"uint40","name":"ts","type":"uint40"},{"internalType":"string","name":"digIpfs","type":"string"},{"internalType":"bytes32","name":"summary","type":"bytes32"},{"internalType":"address","name":"mechanic","type":"address"}],"internalType":"struct VehiclePassport.Diagnostic[]","name":"","type":"tuple[]"}],"stateMutability":"view","type":"function"},{"inputs":[{"internalType":"bytes17","name":"vin","type":"bytes17"}],"name":"getInspections","outputs":[{"components":[{"internalType":"uint40","name":"ts","type":"uint40"},{"internalType":"bool","name":"passed","type":"bool"},{"internalType":"string","name":"insIpfs","type":"string"},{"internalType":"address","name":"inspector","type":"address"}],"internalType":"struct VehiclePassport.Inspection[]","name":"","type":"tuple[]"}],"stateMutability":"view","type":"function"},{"inputs":[{"internalType":"bytes17","name":"vin","type":"bytes17"}],"name":"getMaintenance","outputs":[{"components":[{"internalType":"uint40","name":"ts","type":"uint40"},{"internalType":"bytes32","name":"part","type":"bytes32"},{"internalType":"string","name":"partIpfs","type":"string"},{"internalType":"bytes32","name":"note","type":"bytes32"},{"internalType":"address","name":"mechanic","type":"address"}],"internalType":"struct VehiclePassport.Maintenance[]","name":"","type":"tuple[]"}],"stateMutability":"view","type":"function"},{"inputs":[],"name":"getMyVehicles","outputs":[{"internalType":"bytes17[]","name":"","type":"bytes17[]"}],"stateMutability":"view","type":"function"},{"inputs":[{"internalType":"bytes17","name":"vin","type":"bytes17"}],"name":"getOwnershipHistory","outputs":[{"components":[{"internalType":"address","name":"owner","type":"address"},{"internalType":"uint40","name":"from","type":"uint40"},{"internalType":"uint40","name":"to","type":"uint40"}],"internalType":"struct VehiclePassport.OwnershipLog[]","name":"","type":"tuple[]"}],"stateMutability":"view","type":"function"},{"inputs":[{"internalType":"bytes32","name":"role","type":"bytes32"}],"name":"getRoleAdmin","outputs":[{"internalType":"bytes32","name":"","type":"bytes32"}],"stateMutability":"view","type":"function"},{"inputs":[{"internalType":"bytes17","name":"vin","type":"bytes17"}],"name":"getVehicleMeta","outputs":[{"internalType":"address","name":"owner","type":"address"},{"internalType":"uint16","name":"year","type":"uint16"},{"internalType":"uint32","name":"mileage","type":"uint32"},{"internalType":"uint32","name":"maintCnt","type":"uint32"},{"internalType":"uint32","name":"diagCnt","type":"uint32"},{"internalType":"uint32","name":"inspCnt","type":"uint32"},{"internalType":"uint32","name":"accCnt","type":"uint32"}],"stateMutability":"view","type":"function"},{"inputs":[{"internalType":"bytes32","name":"role","type":"bytes32"},{"internalType":"address","name":"account","type":"address"}],"name":"grantRole","outputs":[],"stateMutability":"nonpayable","type":"function"},{"inputs":[{"internalType":"bytes32","name":"role","type":"bytes32"},{"internalType":"address","name":"account","type":"address"}],"name":"hasRole","outputs":[{"internalType":"bool","name":"","type":"bool"}],"stateMutability":"view","type":"function"},{"inputs":[{"internalType":"bytes17","name":"","type":"bytes17"},{"internalType":"uint256","name":"","type":"uint256"}],"name":"insps","outputs":[{"internalType":"uint40","name":"ts","type":"uint40"},{"internalType":"bool","name":"passed","type":"bool"},{"internalType":"string","name":"insIpfs","type":"string"},{"internalType":"address","name":"inspector","type":"address"}],"stateMutability":"view","type":"function"},{"inputs":[{"internalType":"bytes17","name":"","type":"bytes17"},{"internalType":"uint256","name":"","type":"uint256"}],"name":"maints","outputs":[{"internalType":"uint40","name":"ts","type":"uint40"},{"internalType":"bytes32","name":"part","type":"bytes32"},{"internalType":"string","name":"partIpfs","type":"string"},{"internalType":"bytes32","name":"note","type":"bytes32"},{"internalType":"address","name":"mechanic","type":"address"}],"stateMutability":"view","type":"function"},{"inputs":[{"internalType":"bytes17","name":"","type":"bytes17"}],"name":"meta","outputs":[{"internalType":"address","name":"currentOwner","type":"address"},{"internalType":"uint16","name":"year","type":"uint16"},{"internalType":"uint32","name":"mileage","type":"uint32"}],"stateMutability":"view","type":"function"},{"inputs":[{"internalType":"address","name":"","type":"address"},{"internalType":"uint256","name":"","type":"uint256"}],"name":"ownerToVins","outputs":[{"internalType":"bytes17","name":"","type":"bytes17"}],"stateMutability":"view","type":"function"},{"inputs":[{"internalType":"bytes17","name":"","type":"bytes17"},{"internalType":"uint256","name":"","type":"uint256"}],"name":"owners","outputs":[{"internalType":"address","name":"owner","type":"address"},{"internalType":"uint40","name":"from","type":"uint40"},{"internalType":"uint40","name":"to","type":"uint40"}],"stateMutability":"view","type":"function"},{"inputs":[{"internalType":"bytes17","name":"vin","type":"bytes17"},{"internalType":"address","name":"firstOwner","type":"address"},{"internalType":"uint16","name":"year","type":"uint16"},{"internalType":"uint32","name":"mileage","type":"uint32"}],"name":"registerVehicle","outputs":[],"stateMutability":"nonpayable","type":"function"},{"inputs":[{"internalType":"bytes32","name":"role","type":"bytes32"},{"internalType":"address","name":"callerConfirmation","type":"address"}],"name":"renounceRole","outputs":[],"stateMutability":"nonpayable","type":"function"},{"inputs":[{"internalType":"bytes17","name":"vin","type":"bytes17"},{"internalType":"string","name":"photoCid","type":"string"},{"internalType":"string","name":"descCid","type":"string"}],"name":"reportAccident","outputs":[],"stateMutability":"nonpayable","type":"function"},{"inputs":[{"internalType":"bytes32","name":"role","type":"bytes32"},{"internalType":"address","name":"account","type":"address"}],"name":"revokeRole","outputs":[],"stateMutability":"nonpayable","type":"function"},{"inputs":[{"internalType":"bytes4","name":"interfaceId","type":"bytes4"}],"name":"supportsInterface","outputs":[{"internalType":"bool","name":"","type":"bool"}],"stateMutability":"view","type":"function"},{"inputs":[{"internalType":"bytes17","name":"vin","type":"bytes17"},{"internalType":"address","name":"newOwner","type":"address"}],"name":"transferOwnership","outputs":[],"stateMutability":"nonpayable","type":"function"}],"evm":{"bytecode":{"linkReferences":{},"object":"608060405234601f57600f336024565b506040516126cf90816100b28239f35b600080fd5b6001600160a01b0381166000908152600080516020612781833981519152602052604090205460ff1660ab576001600160a01b0316600081815260008051602061278183398151915260205260408120805460ff191660011790553391907f2f8788117e7eff1d82e926ec794901d17c78024a50270940304540a733656f0d8180a4600190565b5060009056fe608080604052600436101561001357600080fd5b60003560e01c90816301ffc9a7146120425750806304ba13c014611ed75780630b5a9c7214611c355780630bc85cc114611b8f5780632087a00e14611b54578063248a9ca314611b1f57806329065817146119c05780632f2ff15d14611980578063304038f81461191857806336568abe146118d2578063525099a2146115c85780635e7215bc146115075780636b22d13b146114cc57806385a41751146114565780638ea00aa2146112e957806391d148541461129c578063923071de14610ec857806398f876e014610dda578063a217fddf14610dbe578063ae632b7614610d17578063b523cc5c14610cb8578063ba49390614610b35578063bf5fef4b146109dc578063cf8ba8051461093b578063d44e31f41461089f578063d547741f14610858578063ebf7b5f8146105ca578063fe3b96661461027a5763fef085a91461015e57600080fd5b34610275576020366003190112610275576001600160781b0319610180612095565b166000526002602052604060002080549061019a8261233e565b916101a8604051938461213e565b80835260208301809260005260206000206000915b8383106102305784866040519182916020830190602084525180915260408301919060005b8181106101f0575050500390f35b919350916020606060019264ffffffffff60408851868060a01b0381511684528286820151168685015201511660408201520194019101918493926101e2565b60016020819260405161024281612123565b64ffffffffff8654858060a01b0381168352818160a01c168584015260c81c1660408201528152019201920191906101bd565b600080fd5b3461027557608036600319011261027557610293612095565b602435801515809103610275576044356001600160401b038111610275576102bf90369060040161215f565b9161035a6102cb6121b5565b916001600160781b031916918260005260016020526102f860018060a01b03604060002054161515612355565b6103006124df565b82600052600160205261032963ffffffff60406000205460b01c1663ffffffff83161015612396565b6000838152600160205260409020805463ffffffff60b01b191660b09290921b63ffffffff60b01b16919091179055565b806000526005602052604060002092604051610375816120ed565b64ffffffffff421681526020810194848652604082019583875260608301913383528054600160401b81101561059e576103b491600182018155612322565b9390936105b457518354915165ffffffffffff1990921664ffffffffff919091161790151560281b65ff0000000000161782559451805190959060018301906001600160401b03811161059e5761040b82546121fa565b601f8111610556575b506020601f82116001146104c65791816104b6969594926002947f10e87f3127fda89bf9f4074b241293981c556a999f4822df55a7eb312a7a7c989b6000926104bb575b50508160011b916000199060031b1c19161790555b60018060a01b0390511691019060018060a01b03166bffffffffffffffffffffffff60a01b825416179055604051938493845260208401526060604084015260608301906120ac565b0390a1005b015190508b80610458565b601f1982169883600052816000209960005b81811061053e5750927f10e87f3127fda89bf9f4074b241293981c556a999f4822df55a7eb312a7a7c989a60029593600193836104b69b9a999710610525575b505050811b01905561046d565b015160001960f88460031b161c191690558b8080610518565b838301518c556001909b019a602093840193016104d8565b826000526020600020601f830160051c81019160208410610594575b601f0160051c01905b8181106105885750610414565b6000815560010161057b565b9091508190610572565b634e487b7160e01b600052604160045260246000fd5b634e487b7160e01b600052600060045260246000fd5b34610275576040366003190112610275576105e3612095565b6105eb6122d8565b6001600160781b0319821660008181526001602052604090205491929161061c906001600160a01b03161515612355565b6000818152600160205260409020546001600160a01b031633036108275733600052600760205260406000209160005b83548082101561081d578361066183876122ee565b6001600160781b031991549060031b1c60781b1614610683575060010161064c565b929391926000198101919082116107f1576106b56106a46106d593856122ee565b90549060031b1c60781b91846122ee565b9091906001600160881b0383549160031b9260781c831b921b1916179055565b805480156108075760001901906106ec82826122ee565b6001600160881b0382549160031b1b19169055555b81600052600260205260406000209064ffffffffff42169382549060001982019182116107f157836107638761073d610790956107a3986122ee565b50805464ffffffffff60c81b191660c89290921b64ffffffffff60c81b16919091179055565b6040519161077083612123565b6001600160a01b03168083526020830197909752600060408301526123d6565b836000526007602052604060002061244a565b8060005260016020526040600020826bffffffffffffffffffffffff60a01b82541617905533907f3e473a9bfcddd444165e736027a3f71cf9090e276e132277018eaedffa8df29d600080a4005b634e487b7160e01b600052601160045260246000fd5b634e487b7160e01b600052603160045260246000fd5b5050909150610701565b60405162461bcd60e51b81526020600482015260096024820152682737ba1037bbb732b960b91b6044820152606490fd5b346102755760403660031901126102755761089d6004356108776122d8565b9061089861089382600052600060205260016040600020015490565b612551565b612617565b005b34610275576040366003190112610275576108b8612095565b602435906001600160781b03191660005260046020526040600020908154811015610275576108e6916121c8565b5064ffffffffff8154166108fc60018301612234565b91600281015490600360018060a01b039101541661092c60405194859485526080602086015260808501906120ac565b91604084015260608301520390f35b3461027557604036600319011261027557610954612095565b602435906001600160781b0319166000526005602052604060002080548210156102755760ff9161098491612322565b508054906109d261099760018301612234565b91600260018060a01b039101541691604051948464ffffffffff879616865260281c16151560208501526080604085015260808401906120ac565b9060608301520390f35b34610275576020366003190112610275576001600160781b03196109fe612095565b1660005260046020526040600020805490610a188261233e565b91610a26604051938461213e565b80835260208301809260005260206000206000915b838310610adf57848660405191829160208301906020845251809152604083019060408160051b85010192916000905b828210610a7a57505050500390f35b919360019193955060208091603f1989820301855287519064ffffffffff82511681526060610ab68484015160808685015260808401906120ac565b926040810151604084015281878060a01b03910151169101529601920192018594939192610a6b565b60046020600192604051610af2816120ed565b64ffffffffff8654168152610b08858701612234565b8382015260028601546040820152848060a01b036003870154166060820152815201920192019190610a3b565b3461027557608036600319011261027557610b4e612095565b610b566122d8565b906044359161ffff831680930361027557610b6f6121b5565b6001600160781b03198316600081815260016020526040902054909391906001600160a01b0316610c8657610c5f9263ffffffff610c259260405192610bb484612123565b6001600160a01b0390811680855260208086019a8b52928416604080870191825260008b81526001909552909320945185549a5193516001600160d01b0319909b1692169190911760a09290921b61ffff60a01b16919091179790911660b01b63ffffffff60b01b16969096179055565b826000526002602052610790604060002060405190610c4382612123565b86825264ffffffffff42166020830152600060408301526123d6565b7f433e5dd5bb0fee7b9f803052dcffb101b97612701682e78dc3f120546504ba46600080a3005b60405162461bcd60e51b815260206004820152600a60248201526956494e2065786973747360b01b6044820152606490fd5b34610275576020366003190112610275576001600160781b0319610cda612095565b166000526001602052606060406000205463ffffffff6040519160018060a01b038116835261ffff8160a01c16602084015260b01c166040820152f35b3461027557604036600319011261027557610d30612095565b602435906001600160781b0319166000526003602052604060002090815481101561027557610d5e91612306565b5064ffffffffff815416600182015491610d7a60028201612234565b610daf600383015492600460018060a01b0391015416916040519586958652602086015260a0604086015260a08501906120ac565b91606084015260808301520390f35b3461027557600036600319011261027557602060405160008152f35b346102755760203660031901126102755760e06001600160781b0319610dfe612095565b16600081815260016020526040902054610e22906001600160a01b03161515612355565b8060005260016020526040600020549080600052600360205263ffffffff604060002054169080600052600460205263ffffffff6040600020541681600052600560205263ffffffff6040600020541691600052600660205263ffffffff604060002054169263ffffffff6040519560018060a01b038116875261ffff8160a01c16602088015260b01c1660408601526060850152608084015260a083015260c0820152f35b3461027557606036600319011261027557610ee1612095565b6024356001600160401b03811161027557610f0090369060040161215f565b6044356001600160401b03811161027557610f1f90369060040161215f565b6001600160781b0319909216600081815260016020526040902054610f4e906001600160a01b03161515612355565b610f566124df565b806000526006602052604060002092604051610f71816120ed565b64ffffffffff421681526020810194848652604082019583875260608301913383528054600160401b81101561059e57610fb0916001820181556121c8565b9390936105b45751835464ffffffffff191664ffffffffff9190911617835551805160018401916001600160401b03821161059e578190610ff184546121fa565b601f8111611249575b50602090601f83116001146111e4576000926111d9575b50508160011b916000199060031b1c19161790555b6002820195519586516001600160401b03811161059e5761104782546121fa565b601f8111611191575b506020601f82116001146111025791816104b6969594926003947fa177137e7acdb7a8a9e37d2b57f13306c2ab30bbf4f82e51c3790a83d3c4b7489b6000926110f7575b50508160011b9160001990861b1c19161790555b51910180546001600160a01b0319166001600160a01b0392909216919091179055604051928352606060208401819052929384936110e991908501906120ac565b9083820360408501526120ac565b015190508b80611094565b601f1982169883600052816000209960005b8181106111795750927fa177137e7acdb7a8a9e37d2b57f13306c2ab30bbf4f82e51c3790a83d3c4b7489a60039593600193836104b69b9a999710611161575b505050811b0190556110a8565b015160001983881b60f8161c191690558b8080611154565b838301518c556001909b019a60209384019301611114565b826000526020600020601f830160051c810191602084106111cf575b601f0160051c01905b8181106111c35750611050565b600081556001016111b6565b90915081906111ad565b015190508980611011565b60008581528281209350601f198516905b8181106112315750908460019594939210611218575b505050811b019055611026565b015160001960f88460031b161c1916905589808061120b565b929360206001819287860151815501950193016111f5565b909150836000526020600020601f840160051c81019160208510611292575b90601f859493920160051c01905b8181106112835750610ffa565b60008155849350600101611276565b9091508190611268565b34610275576040366003190112610275576112b56122d8565b600435600052600060205260406000209060018060a01b0316600052602052602060ff604060002054166040519015158152f35b34610275576020366003190112610275576001600160781b031961130b612095565b16600052600360205260406000208054906113258261233e565b91611333604051938461213e565b80835260208301809260005260206000206000915b8383106113f657848660405191829160208301906020845251809152604083019060408160051b85010192916000905b82821061138757505050500390f35b919360019193955060208091603f1989820301855287519064ffffffffff8251168152828201518382015260806113cd604084015160a0604085015260a08401906120ac565b926060810151606084015281878060a01b03910151169101529601920192018594939192611378565b6005602060019260405161140981612108565b64ffffffffff8654168152848601548382015261142860028701612234565b604082015260038601546060820152848060a01b036004870154166080820152815201920192019190611348565b346102755760403660031901126102755761146f612095565b602435906001600160781b0319166000526002602052604060002080548210156102755760609161149f916122ee565b505464ffffffffff6040519160018060a01b0381168352818160a01c16602084015260c81c166040820152f35b346102755760003660031901126102755760206040517f1ac05cded273d7237dfbbd305bbd7cd47a33eb42bf9f7d2307b7784016772fc08152f35b346102755760003660031901126102755733600052600760205260406000206040518060208354918281520190819360005260206000209060005b8181106115a5575050508161155891038261213e565b6040519182916020830190602084525180915260408301919060005b818110611582575050500390f35b82516001600160781b031916845285945060209384019390920191600101611574565b825460781b6001600160781b031916845260209093019260019283019201611542565b346102755760a0366003190112610275576115e1612095565b602435906044356001600160401b0381116102755761160490369060040161215f565b91606435906084359263ffffffff841693848103610275576116766116a7926001600160781b0319169586600052600160205261164f60018060a01b03604060002054161515612355565b61165761246d565b86600052600160205263ffffffff60406000205460b01c161115612396565b6000858152600160205260409020805463ffffffff60b01b191660b09290921b63ffffffff60b01b16919091179055565b8260005260036020526040600020604051906116c282612108565b64ffffffffff421682526020820183815260408301968752606083019085825260808401923384528054600160401b81101561059e5761170791600182018155612306565b9490946105b45764ffffffffff809151161664ffffffffff198554161784555160018401556002830196519687516001600160401b03811161059e5761174d82546121fa565b601f811161188a575b506020601f82116001146117f85791816004949260609a99989796947f999768443068a7f889bcd2c2dc54b5ba049bbbbce89ccc8685595a6b510de7e29c6000926117ed575b50508160011b916000199060031b1c19161790555b51600384015551910180546001600160a01b0319166001600160a01b0392909216919091179055604080519384526020840191909152820152a1005b015190508c8061179c565b601f1982169983600052816000209a60005b8181106118725750927f999768443068a7f889bcd2c2dc54b5ba049bbbbce89ccc8685595a6b510de7e29b60609b9a9998979593600193836004999710611859575b505050811b0190556117b1565b015160001960f88460031b161c191690558c808061184c565b838301518d556001909c019b6020938401930161180a565b826000526020600020601f830160051c810191602084106118c8575b601f0160051c01905b8181106118bc5750611756565b600081556001016118af565b90915081906118a6565b34610275576040366003190112610275576118eb6122d8565b336001600160a01b038216036119075761089d90600435612617565b63334bd91960e11b60005260046000fd5b34610275576040366003190112610275576004356001600160a01b03811690819003610275576024359060005260076020526040600020805482101561027557602091611964916122ee565b90549060031b1c60781b604051906001600160781b0319168152f35b346102755760403660031901126102755761089d60043561199f6122d8565b906119bb61089382600052600060205260016040600020015490565b61258c565b34610275576020366003190112610275576001600160781b03196119e2612095565b16600052600560205260406000208054906119fc8261233e565b91611a0a604051938461213e565b80835260208301809260005260206000206000915b838310611ac557848660405191829160208301906020845251809152604083019060408160051b85010192916000905b828210611a5e57505050500390f35b919360019193955060208091603f1989820301855287519064ffffffffff8251168152828201511515838201526060611aa660408401516080604085015260808401906120ac565b9281878060a01b03910151169101529601920192018594939192611a4f565b60036020600192604051611ad8816120ed565b60ff865464ffffffffff8116835260281c16151583820152611afb858701612234565b6040820152848060a01b036002870154166060820152815201920192019190611a1f565b34610275576020366003190112610275576020611b4c600435600052600060205260016040600020015490565b604051908152f35b346102755760003660031901126102755760206040517f3c897272fb756004d8a8588422a9ce6e04768b2d705bbde7a87ceb35e9b9c5d98152f35b3461027557604036600319011261027557611ba8612095565b602435906001600160781b0319166000526006602052604060002090815481101561027557611bd6916121c8565b5064ffffffffff815416611bec60018301612234565b916109d2611bfc60028301612234565b91600360018060a01b039101541691611c2760405195869586526080602087015260808601906120ac565b9084820360408601526120ac565b3461027557608036600319011261027557611c4e612095565b6024356001600160401b03811161027557611c6d90369060040161215f565b60443591611cb1611c7c6121b5565b916001600160781b03191691826000526001602052611ca960018060a01b03604060002054161515612355565b61030061246d565b806000526004602052604060002092604051611ccc816120ed565b64ffffffffff4216815260208101948486526040820183815260608301913383528054600160401b81101561059e57611d0a916001820181556121c8565b9390936105b45764ffffffffff809151161664ffffffffff198454161783556001830196519687516001600160401b03811161059e57611d4a82546121fa565b601f8111611e8f575b506020601f8211600114611e045790806003959493927fb1bcda13ea12fa1c32987f644b92e31af28a5debfc6dbc5e8f090aa9ae21cbbe9b600092611df9575b50508160011b9160001990871b1c19161790555b51600284015551910180546001600160a01b0319166001600160a01b039290921691909117905560405191825260606020830181905291928392611dee91908401906120ac565b9060408301520390a1005b015190508b80611d93565b601f1982169983600052816000209a60005b818110611e7757509a60019284926003989796957fb1bcda13ea12fa1c32987f644b92e31af28a5debfc6dbc5e8f090aa9ae21cbbe9e10611e5f575b505050811b019055611da7565b015160001983891b60f8161c191690558b8080611e52565b838301518d556001909c019b60209384019301611e16565b826000526020600020601f830160051c81019160208410611ecd575b601f0160051c01905b818110611ec15750611d53565b60008155600101611eb4565b9091508190611eab565b34610275576020366003190112610275576001600160781b0319611ef9612095565b1660005260066020526040600020805490611f138261233e565b91611f21604051938461213e565b80835260208301809260005260206000206000915b838310611fe557848660405191829160208301906020845251809152604083019060408160051b85010192916000905b828210611f7557505050500390f35b919360019193955060208091603f1989820301855287519064ffffffffff82511681526060611fc6611fb48585015160808786015260808501906120ac565b604085015184820360408601526120ac565b9281878060a01b03910151169101529601920192018594939192611f66565b60046020600192604051611ff8816120ed565b64ffffffffff865416815261200e858701612234565b8382015261201e60028701612234565b6040820152848060a01b036003870154166060820152815201920192019190611f36565b34610275576020366003190112610275576004359063ffffffff60e01b821680920361027557602091637965db0b60e01b8114908115612084575b5015158152f35b6301ffc9a760e01b1490508361207d565b600435906001600160781b03198216820361027557565b919082519283825260005b8481106120d8575050826000602080949584010152601f8019910116010190565b806020809284010151828286010152016120b7565b608081019081106001600160401b0382111761059e57604052565b60a081019081106001600160401b0382111761059e57604052565b606081019081106001600160401b0382111761059e57604052565b90601f801991011681019081106001600160401b0382111761059e57604052565b81601f82011215610275578035906001600160401b03821161059e5760405192612193601f8401601f19166020018561213e565b8284526020838301011161027557816000926020809301838601378301015290565b6064359063ffffffff8216820361027557565b80548210156121e45760005260206000209060021b0190600090565b634e487b7160e01b600052603260045260246000fd5b90600182811c9216801561222a575b602083101461221457565b634e487b7160e01b600052602260045260246000fd5b91607f1691612209565b9060405191826000825492612248846121fa565b80845293600181169081156122b6575060011461226f575b5061226d9250038361213e565b565b90506000929192526020600020906000915b81831061229a57505090602061226d9282010138612260565b6020919350806001915483858901015201910190918492612281565b90506020925061226d94915060ff191682840152151560051b82010138612260565b602435906001600160a01b038216820361027557565b80548210156121e45760005260206000200190600090565b80548210156121e4576000526005602060002091020190600090565b80548210156121e4576000526003602060002091020190600090565b6001600160401b03811161059e5760051b60200190565b1561235c57565b60405162461bcd60e51b8152602060048201526012602482015271159253881b9bdd081c9959da5cdd195c995960721b6044820152606490fd5b1561239d57565b60405162461bcd60e51b815260206004820152601160248201527043616e206f6e6c7920696e63726561736560781b6044820152606490fd5b8054600160401b81101561059e576123f3916001820181556122ee565b6105b45781518154602084015160409094015164ffffffffff60c81b60c89190911b1664ffffffffff60a01b60a09590951b949094166001600160a01b039092166001600160f01b03199091161717919091179055565b90815491600160401b83101561059e57826106b591600161226d950181556122ee565b3360009081527f6fe1bb14d02f81e030135933d6023dbd36c2e2ed183a7b09e9d38179a58924ef602052604090205460ff16156124a657565b63e2517d3f60e01b600052336004527f1ac05cded273d7237dfbbd305bbd7cd47a33eb42bf9f7d2307b7784016772fc060245260446000fd5b3360009081527fae3ea78a97fe5b1bd5fdbbdc9c84c9ed28a6275870601051eeab4a1eef61ee4c602052604090205460ff161561251857565b63e2517d3f60e01b600052336004527f3c897272fb756004d8a8588422a9ce6e04768b2d705bbde7a87ceb35e9b9c5d960245260446000fd5b60008181526020818152604080832033845290915290205460ff16156125745750565b63e2517d3f60e01b6000523360045260245260446000fd5b6000818152602081815260408083206001600160a01b038616845290915290205460ff16612610576000818152602081815260408083206001600160a01b0395909516808452949091528120805460ff19166001179055339291907f2f8788117e7eff1d82e926ec794901d17c78024a50270940304540a733656f0d9080a4600190565b5050600090565b6000818152602081815260408083206001600160a01b038616845290915290205460ff1615612610576000818152602081815260408083206001600160a01b0395909516808452949091528120805460ff19169055339291907ff6391f5c32d9c69d2a47ea670b442974b53935d1edc7fd64eb21e047a839171b9080a460019056fea2646970667358221220e046a6f8ed4ef5f022d5322190580968a3ec2bb6cf9dcc0bcc7794907795c19264736f6c634300081c0033ad3228b676f7d3cd4284a5443f17f1962b36e491b30a40b2405849e597ba5fb5","opcodes":"PUSH1 0x80 PUSH1 0x40 MSTORE CALLVALUE PUSH1 0x1F JUMPI PUSH1 0xF CALLER PUSH1 0x24 JUMP JUMPDEST POP PUSH1 0x40 MLOAD PUSH2 0x26CF SWAP1 DUP2 PUSH2 0xB2 DUP3 CODECOPY RETURN JUMPDEST PUSH1 0x0 DUP1 REVERT JUMPDEST PUSH1 0x1 PUSH1 0x1 PUSH1 0xA0 SHL SUB DUP2 AND PUSH1 0x0 SWAP1 DUP2 MSTORE PUSH1 0x0 DUP1 MLOAD PUSH1 0x20 PUSH2 0x2781 DUP4 CODECOPY DUP2 MLOAD SWAP2 MSTORE PUSH1 0x20 MSTORE PUSH1 0x40 SWAP1 KECCAK256 SLOAD PUSH1 0xFF AND PUSH1 0xAB JUMPI PUSH1 0x1 PUSH1 0x1 PUSH1 0xA0 SHL SUB AND PUSH1 0x0 DUP2 DUP2 MSTORE PUSH1 0x0 DUP1 MLOAD PUSH1 0x20 PUSH2 0x2781 DUP4 CODECOPY DUP2 MLOAD SWAP2 MSTORE PUSH1 0x20 MSTORE PUSH1 0x40 DUP2 KECCAK256 DUP1 SLOAD PUSH1 0xFF NOT AND PUSH1 0x1 OR SWAP1 SSTORE CALLER SWAP2 SWAP1 PUSH32 0x2F8788117E7EFF1D82E926EC794901D17C78024A50270940304540A733656F0D DUP2 DUP1 LOG4 PUSH1 0x1 SWAP1 JUMP JUMPDEST POP PUSH1 0x0 SWAP1 JUMP INVALID PUSH1 0x80 DUP1 PUSH1 0x40 MSTORE PUSH1 0x4 CALLDATASIZE LT ISZERO PUSH2 0x13 JUMPI PUSH1 0x0 DUP1 REVERT JUMPDEST PUSH1 0x0 CALLDATALOAD PUSH1 0xE0 SHR SWAP1 DUP2 PUSH4 0x1FFC9A7 EQ PUSH2 0x2042 JUMPI POP DUP1 PUSH4 0x4BA13C0 EQ PUSH2 0x1ED7 JUMPI DUP1 PUSH4 0xB5A9C72 EQ PUSH2 0x1C35 JUMPI DUP1 PUSH4 0xBC85CC1 EQ PUSH2 0x1B8F JUMPI DUP1 PUSH4 0x2087A00E EQ PUSH2 0x1B54 JUMPI DUP1 PUSH4 0x248A9CA3 EQ PUSH2 0x1B1F JUMPI DUP1 PUSH4 0x29065817 EQ PUSH2 0x19C0 JUMPI DUP1 PUSH4 0x2F2FF15D EQ PUSH2 0x1980 JUMPI DUP1 PUSH4 0x304038F8 EQ PUSH2 0x1918 JUMPI DUP1 PUSH4 0x36568ABE EQ PUSH2 0x18D2 JUMPI DUP1 PUSH4 0x525099A2 EQ PUSH2 0x15C8 JUMPI DUP1 PUSH4 0x5E7215BC EQ PUSH2 0x1507 JUMPI DUP1 PUSH4 0x6B22D13B EQ PUSH2 0x14CC JUMPI DUP1 PUSH4 0x85A41751 EQ PUSH2 0x1456 JUMPI DUP1 PUSH4 0x8EA00AA2 EQ PUSH2 0x12E9 JUMPI DUP1 PUSH4 0x91D14854 EQ PUSH2 0x129C JUMPI DUP1 PUSH4 0x923071DE EQ PUSH2 0xEC8 JUMPI DUP1 PUSH4 0x98F876E0 EQ PUSH2 0xDDA JUMPI DUP1 PUSH4 0xA217FDDF EQ PUSH2 0xDBE JUMPI DUP1 PUSH4 0xAE632B76 EQ PUSH2 0xD17 JUMPI DUP1 PUSH4 0xB523CC5C EQ PUSH2 0xCB8 JUMPI DUP1 PUSH4 0xBA493906 EQ PUSH2 0xB35 JUMPI DUP1 PUSH4 0xBF5FEF4B EQ PUSH2 0x9DC JUMPI DUP1 PUSH4 0xCF8BA805 EQ PUSH2 0x93B JUMPI DUP1 PUSH4 0xD44E31F4 EQ PUSH2 0x89F JUMPI DUP1 PUSH4 0xD547741F EQ PUSH2 0x858 JUMPI DUP1 PUSH4 0xEBF7B5F8 EQ PUSH2 0x5CA JUMPI DUP1 PUSH4 0xFE3B9666 EQ PUSH2 0x27A JUMPI PUSH4 0xFEF085A9 EQ PUSH2 0x15E JUMPI PUSH1 0x0 DUP1 REVERT JUMPDEST CALLVALUE PUSH2 0x275 JUMPI PUSH1 0x20 CALLDATASIZE PUSH1 0x3 NOT ADD SLT PUSH2 0x275 JUMPI PUSH1 0x1 PUSH1 0x1 PUSH1 0x78 SHL SUB NOT PUSH2 0x180 PUSH2 0x2095 JUMP JUMPDEST AND PUSH1 0x0 MSTORE PUSH1 0x2 PUSH1 0x20 MSTORE PUSH1 0x40 PUSH1 0x0 KECCAK256 DUP1 SLOAD SWAP1 PUSH2 0x19A DUP3 PUSH2 0x233E JUMP JUMPDEST SWAP2 PUSH2 0x1A8 PUSH1 0x40 MLOAD SWAP4 DUP5 PUSH2 0x213E JUMP JUMPDEST DUP1 DUP4 MSTORE PUSH1 0x20 DUP4 ADD DUP1 SWAP3 PUSH1 0x0 MSTORE PUSH1 0x20 PUSH1 0x0 KECCAK256 PUSH1 0x0 SWAP2 JUMPDEST DUP4 DUP4 LT PUSH2 0x230 JUMPI DUP5 DUP7 PUSH1 0x40 MLOAD SWAP2 DUP3 SWAP2 PUSH1 0x20 DUP4 ADD SWAP1 PUSH1 0x20 DUP5 MSTORE MLOAD DUP1 SWAP2 MSTORE PUSH1 0x40 DUP4 ADD SWAP2 SWAP1 PUSH1 0x0 JUMPDEST DUP2 DUP2 LT PUSH2 0x1F0 JUMPI POP POP POP SUB SWAP1 RETURN JUMPDEST SWAP2 SWAP4 POP SWAP2 PUSH1 0x20 PUSH1 0x60 PUSH1 0x1 SWAP3 PUSH5 0xFFFFFFFFFF PUSH1 0x40 DUP9 MLOAD DUP7 DUP1 PUSH1 0xA0 SHL SUB DUP2 MLOAD AND DUP5 MSTORE DUP3 DUP7 DUP3 ADD MLOAD AND DUP7 DUP6 ADD MSTORE ADD MLOAD AND PUSH1 0x40 DUP3 ADD MSTORE ADD SWAP5 ADD SWAP2 ADD SWAP2 DUP5 SWAP4 SWAP3 PUSH2 0x1E2 JUMP JUMPDEST PUSH1 0x1 PUSH1 0x20 DUP2 SWAP3 PUSH1 0x40 MLOAD PUSH2 0x242 DUP2 PUSH2 0x2123 JUMP JUMPDEST PUSH5 0xFFFFFFFFFF DUP7 SLOAD DUP6 DUP1 PUSH1 0xA0 SHL SUB DUP2 AND DUP4 MSTORE DUP2 DUP2 PUSH1 0xA0 SHR AND DUP6 DUP5 ADD MSTORE PUSH1 0xC8 SHR AND PUSH1 0x40 DUP3 ADD MSTORE DUP2 MSTORE ADD SWAP3 ADD SWAP3 ADD SWAP2 SWAP1 PUSH2 0x1BD JUMP JUMPDEST PUSH1 0x0 DUP1 REVERT JUMPDEST CALLVALUE PUSH2 0x275 JUMPI PUSH1 0x80 CALLDATASIZE PUSH1 0x3 NOT ADD SLT PUSH2 0x275 JUMPI PUSH2 0x293 PUSH2 0x2095 JUMP JUMPDEST PUSH1 0x24 CALLDATALOAD DUP1 ISZERO ISZERO DUP1 SWAP2 SUB PUSH2 0x275 JUMPI PUSH1 0x44 CALLDATALOAD PUSH1 0x1 PUSH1 0x1 PUSH1 0x40 SHL SUB DUP2 GT PUSH2 0x275 JUMPI PUSH2 0x2BF SWAP1 CALLDATASIZE SWAP1 PUSH1 0x4 ADD PUSH2 0x215F JUMP JUMPDEST SWAP2 PUSH2 0x35A PUSH2 0x2CB PUSH2 0x21B5 JUMP JUMPDEST SWAP2 PUSH1 0x1 PUSH1 0x1 PUSH1 0x78 SHL SUB NOT AND SWAP2 DUP3 PUSH1 0x0 MSTORE PUSH1 0x1 PUSH1 0x20 MSTORE PUSH2 0x2F8 PUSH1 0x1 DUP1 PUSH1 0xA0 SHL SUB PUSH1 0x40 PUSH1 0x0 KECCAK256 SLOAD AND ISZERO ISZERO PUSH2 0x2355 JUMP JUMPDEST PUSH2 0x300 PUSH2 0x24DF JUMP JUMPDEST DUP3 PUSH1 0x0 MSTORE PUSH1 0x1 PUSH1 0x20 MSTORE PUSH2 0x329 PUSH4 0xFFFFFFFF PUSH1 0x40 PUSH1 0x0 KECCAK256 SLOAD PUSH1 0xB0 SHR AND PUSH4 0xFFFFFFFF DUP4 AND LT ISZERO PUSH2 0x2396 JUMP JUMPDEST PUSH1 0x0 DUP4 DUP2 MSTORE PUSH1 0x1 PUSH1 0x20 MSTORE PUSH1 0x40 SWAP1 KECCAK256 DUP1 SLOAD PUSH4 0xFFFFFFFF PUSH1 0xB0 SHL NOT AND PUSH1 0xB0 SWAP3 SWAP1 SWAP3 SHL PUSH4 0xFFFFFFFF PUSH1 0xB0 SHL AND SWAP2 SWAP1 SWAP2 OR SWAP1 SSTORE JUMP JUMPDEST DUP1 PUSH1 0x0 MSTORE PUSH1 0x5 PUSH1 0x20 MSTORE PUSH1 0x40 PUSH1 0x0 KECCAK256 SWAP3 PUSH1 0x40 MLOAD PUSH2 0x375 DUP2 PUSH2 0x20ED JUMP JUMPDEST PUSH5 0xFFFFFFFFFF TIMESTAMP AND DUP2 MSTORE PUSH1 0x20 DUP2 ADD SWAP5 DUP5 DUP7 MSTORE PUSH1 0x40 DUP3 ADD SWAP6 DUP4 DUP8 MSTORE PUSH1 0x60 DUP4 ADD SWAP2 CALLER DUP4 MSTORE DUP1 SLOAD PUSH1 0x1 PUSH1 0x40 SHL DUP2 LT ISZERO PUSH2 0x59E JUMPI PUSH2 0x3B4 SWAP2 PUSH1 0x1 DUP3 ADD DUP2 SSTORE PUSH2 0x2322 JUMP JUMPDEST SWAP4 SWAP1 SWAP4 PUSH2 0x5B4 JUMPI MLOAD DUP4 SLOAD SWAP2 MLOAD PUSH6 0xFFFFFFFFFFFF NOT SWAP1 SWAP3 AND PUSH5 0xFFFFFFFFFF SWAP2 SWAP1 SWAP2 AND OR SWAP1 ISZERO ISZERO PUSH1 0x28 SHL PUSH6 0xFF0000000000 AND OR DUP3 SSTORE SWAP5 MLOAD DUP1 MLOAD SWAP1 SWAP6 SWAP1 PUSH1 0x1 DUP4 ADD SWAP1 PUSH1 0x1 PUSH1 0x1 PUSH1 0x40 SHL SUB DUP2 GT PUSH2 0x59E JUMPI PUSH2 0x40B DUP3 SLOAD PUSH2 0x21FA JUMP JUMPDEST PUSH1 0x1F DUP2 GT PUSH2 0x556 JUMPI JUMPDEST POP PUSH1 0x20 PUSH1 0x1F DUP3 GT PUSH1 0x1 EQ PUSH2 0x4C6 JUMPI SWAP2 DUP2 PUSH2 0x4B6 SWAP7 SWAP6 SWAP5 SWAP3 PUSH1 0x2 SWAP5 PUSH32 0x10E87F3127FDA89BF9F4074B241293981C556A999F4822DF55A7EB312A7A7C98 SWAP12 PUSH1 0x0 SWAP3 PUSH2 0x4BB JUMPI JUMPDEST POP POP DUP2 PUSH1 0x1 SHL SWAP2 PUSH1 0x0 NOT SWAP1 PUSH1 0x3 SHL SHR NOT AND OR SWAP1 SSTORE JUMPDEST PUSH1 0x1 DUP1 PUSH1 0xA0 SHL SUB SWAP1 MLOAD AND SWAP2 ADD SWAP1 PUSH1 0x1 DUP1 PUSH1 0xA0 SHL SUB AND PUSH12 0xFFFFFFFFFFFFFFFFFFFFFFFF PUSH1 0xA0 SHL DUP3 SLOAD AND OR SWAP1 SSTORE PUSH1 0x40 MLOAD SWAP4 DUP5 SWAP4 DUP5 MSTORE PUSH1 0x20 DUP5 ADD MSTORE PUSH1 0x60 PUSH1 0x40 DUP5 ADD MSTORE PUSH1 0x60 DUP4 ADD SWAP1 PUSH2 0x20AC JUMP JUMPDEST SUB SWAP1 LOG1 STOP JUMPDEST ADD MLOAD SWAP1 POP DUP12 DUP1 PUSH2 0x458 JUMP JUMPDEST PUSH1 0x1F NOT DUP3 AND SWAP9 DUP4 PUSH1 0x0 MSTORE DUP2 PUSH1 0x0 KECCAK256 SWAP10 PUSH1 0x0 JUMPDEST DUP2 DUP2 LT PUSH2 0x53E JUMPI POP SWAP3 PUSH32 0x10E87F3127FDA89BF9F4074B241293981C556A999F4822DF55A7EB312A7A7C98 SWAP11 PUSH1 0x2 SWAP6 SWAP4 PUSH1 0x1 SWAP4 DUP4 PUSH2 0x4B6 SWAP12 SWAP11 SWAP10 SWAP8 LT PUSH2 0x525 JUMPI JUMPDEST POP POP POP DUP2 SHL ADD SWAP1 SSTORE PUSH2 0x46D JUMP JUMPDEST ADD MLOAD PUSH1 0x0 NOT PUSH1 0xF8 DUP5 PUSH1 0x3 SHL AND SHR NOT AND SWAP1 SSTORE DUP12 DUP1 DUP1 PUSH2 0x518 JUMP JUMPDEST DUP4 DUP4 ADD MLOAD DUP13 SSTORE PUSH1 0x1 SWAP1 SWAP12 ADD SWAP11 PUSH1 0x20 SWAP4 DUP5 ADD SWAP4 ADD PUSH2 0x4D8 JUMP JUMPDEST DUP3 PUSH1 0x0 MSTORE PUSH1 0x20 PUSH1 0x0 KECCAK256 PUSH1 0x1F DUP4 ADD PUSH1 0x5 SHR DUP2 ADD SWAP2 PUSH1 0x20 DUP5 LT PUSH2 0x594 JUMPI JUMPDEST PUSH1 0x1F ADD PUSH1 0x5 SHR ADD SWAP1 JUMPDEST DUP2 DUP2 LT PUSH2 0x588 JUMPI POP PUSH2 0x414 JUMP JUMPDEST PUSH1 0x0 DUP2 SSTORE PUSH1 0x1 ADD PUSH2 0x57B JUMP JUMPDEST SWAP1 SWAP2 POP DUP2 SWAP1 PUSH2 0x572 JUMP JUMPDEST PUSH4 0x4E487B71 PUSH1 0xE0 SHL PUSH1 0x0 MSTORE PUSH1 0x41 PUSH1 0x4 MSTORE PUSH1 0x24 PUSH1 0x0 REVERT JUMPDEST PUSH4 0x4E487B71 PUSH1 0xE0 SHL PUSH1 0x0 MSTORE PUSH1 0x0 PUSH1 0x4 MSTORE PUSH1 0x24 PUSH1 0x0 REVERT JUMPDEST CALLVALUE PUSH2 0x275 JUMPI PUSH1 0x40 CALLDATASIZE PUSH1 0x3 NOT ADD SLT PUSH2 0x275 JUMPI PUSH2 0x5E3 PUSH2 0x2095 JUMP JUMPDEST PUSH2 0x5EB PUSH2 0x22D8 JUMP JUMPDEST PUSH1 0x1 PUSH1 0x1 PUSH1 0x78 SHL SUB NOT DUP3 AND PUSH1 0x0 DUP2 DUP2 MSTORE PUSH1 0x1 PUSH1 0x20 MSTORE PUSH1 0x40 SWAP1 KECCAK256 SLOAD SWAP2 SWAP3 SWAP2 PUSH2 0x61C SWAP1 PUSH1 0x1 PUSH1 0x1 PUSH1 0xA0 SHL SUB AND ISZERO ISZERO PUSH2 0x2355 JUMP JUMPDEST PUSH1 0x0 DUP2 DUP2 MSTORE PUSH1 0x1 PUSH1 0x20 MSTORE PUSH1 0x40 SWAP1 KECCAK256 SLOAD PUSH1 0x1 PUSH1 0x1 PUSH1 0xA0 SHL SUB AND CALLER SUB PUSH2 0x827 JUMPI CALLER PUSH1 0x0 MSTORE PUSH1 0x7 PUSH1 0x20 MSTORE PUSH1 0x40 PUSH1 0x0 KECCAK256 SWAP2 PUSH1 0x0 JUMPDEST DUP4 SLOAD DUP1 DUP3 LT ISZERO PUSH2 0x81D JUMPI DUP4 PUSH2 0x661 DUP4 DUP8 PUSH2 0x22EE JUMP JUMPDEST PUSH1 0x1 PUSH1 0x1 PUSH1 0x78 SHL SUB NOT SWAP2 SLOAD SWAP1 PUSH1 0x3 SHL SHR PUSH1 0x78 SHL AND EQ PUSH2 0x683 JUMPI POP PUSH1 0x1 ADD PUSH2 0x64C JUMP JUMPDEST SWAP3 SWAP4 SWAP2 SWAP3 PUSH1 0x0 NOT DUP2 ADD SWAP2 SWAP1 DUP3 GT PUSH2 0x7F1 JUMPI PUSH2 0x6B5 PUSH2 0x6A4 PUSH2 0x6D5 SWAP4 DUP6 PUSH2 0x22EE JUMP JUMPDEST SWAP1 SLOAD SWAP1 PUSH1 0x3 SHL SHR PUSH1 0x78 SHL SWAP2 DUP5 PUSH2 0x22EE JUMP JUMPDEST SWAP1 SWAP2 SWAP1 PUSH1 0x1 PUSH1 0x1 PUSH1 0x88 SHL SUB DUP4 SLOAD SWAP2 PUSH1 0x3 SHL SWAP3 PUSH1 0x78 SHR DUP4 SHL SWAP3 SHL NOT AND OR SWAP1 SSTORE JUMP JUMPDEST DUP1 SLOAD DUP1 ISZERO PUSH2 0x807 JUMPI PUSH1 0x0 NOT ADD SWAP1 PUSH2 0x6EC DUP3 DUP3 PUSH2 0x22EE JUMP JUMPDEST PUSH1 0x1 PUSH1 0x1 PUSH1 0x88 SHL SUB DUP3 SLOAD SWAP2 PUSH1 0x3 SHL SHL NOT AND SWAP1 SSTORE SSTORE JUMPDEST DUP2 PUSH1 0x0 MSTORE PUSH1 0x2 PUSH1 0x20 MSTORE PUSH1 0x40 PUSH1 0x0 KECCAK256 SWAP1 PUSH5 0xFFFFFFFFFF TIMESTAMP AND SWAP4 DUP3 SLOAD SWAP1 PUSH1 0x0 NOT DUP3 ADD SWAP2 DUP3 GT PUSH2 0x7F1 JUMPI DUP4 PUSH2 0x763 DUP8 PUSH2 0x73D PUSH2 0x790 SWAP6 PUSH2 0x7A3 SWAP9 PUSH2 0x22EE JUMP JUMPDEST POP DUP1 SLOAD PUSH5 0xFFFFFFFFFF PUSH1 0xC8 SHL NOT AND PUSH1 0xC8 SWAP3 SWAP1 SWAP3 SHL PUSH5 0xFFFFFFFFFF PUSH1 0xC8 SHL AND SWAP2 SWAP1 SWAP2 OR SWAP1 SSTORE JUMP JUMPDEST PUSH1 0x40 MLOAD SWAP2 PUSH2 0x770 DUP4 PUSH2 0x2123 JUMP JUMPDEST PUSH1 0x1 PUSH1 0x1 PUSH1 0xA0 SHL SUB AND DUP1 DUP4 MSTORE PUSH1 0x20 DUP4 ADD SWAP8 SWAP1 SWAP8 MSTORE PUSH1 0x0 PUSH1 0x40 DUP4 ADD MSTORE PUSH2 0x23D6 JUMP JUMPDEST DUP4 PUSH1 0x0 MSTORE PUSH1 0x7 PUSH1 0x20 MSTORE PUSH1 0x40 PUSH1 0x0 KECCAK256 PUSH2 0x244A JUMP JUMPDEST DUP1 PUSH1 0x0 MSTORE PUSH1 0x1 PUSH1 0x20 MSTORE PUSH1 0x40 PUSH1 0x0 KECCAK256 DUP3 PUSH12 0xFFFFFFFFFFFFFFFFFFFFFFFF PUSH1 0xA0 SHL DUP3 SLOAD AND OR SWAP1 SSTORE CALLER SWAP1 PUSH32 0x3E473A9BFCDDD444165E736027A3F71CF9090E276E132277018EAEDFFA8DF29D PUSH1 0x0 DUP1 LOG4 STOP JUMPDEST PUSH4 0x4E487B71 PUSH1 0xE0 SHL PUSH1 0x0 MSTORE PUSH1 0x11 PUSH1 0x4 MSTORE PUSH1 0x24 PUSH1 0x0 REVERT JUMPDEST PUSH4 0x4E487B71 PUSH1 0xE0 SHL PUSH1 0x0 MSTORE PUSH1 0x31 PUSH1 0x4 MSTORE PUSH1 0x24 PUSH1 0x0 REVERT JUMPDEST POP POP SWAP1 SWAP2 POP PUSH2 0x701 JUMP JUMPDEST PUSH1 0x40 MLOAD PUSH3 0x461BCD PUSH1 0xE5 SHL DUP2 MSTORE PUSH1 0x20 PUSH1 0x4 DUP3 ADD MSTORE PUSH1 0x9 PUSH1 0x24 DUP3 ADD MSTORE PUSH9 0x2737BA1037BBB732B9 PUSH1 0xB9 SHL PUSH1 0x44 DUP3 ADD MSTORE PUSH1 0x64 SWAP1 REVERT JUMPDEST CALLVALUE PUSH2 0x275 JUMPI PUSH1 0x40 CALLDATASIZE PUSH1 0x3 NOT ADD SLT PUSH2 0x275 JUMPI PUSH2 0x89D PUSH1 0x4 CALLDATALOAD PUSH2 0x877 PUSH2 0x22D8 JUMP JUMPDEST SWAP1 PUSH2 0x898 PUSH2 0x893 DUP3 PUSH1 0x0 MSTORE PUSH1 0x0 PUSH1 0x20 MSTORE PUSH1 0x1 PUSH1 0x40 PUSH1 0x0 KECCAK256 ADD SLOAD SWAP1 JUMP JUMPDEST PUSH2 0x2551 JUMP JUMPDEST PUSH2 0x2617 JUMP JUMPDEST STOP JUMPDEST CALLVALUE PUSH2 0x275 JUMPI PUSH1 0x40 CALLDATASIZE PUSH1 0x3 NOT ADD SLT PUSH2 0x275 JUMPI PUSH2 0x8B8 PUSH2 0x2095 JUMP JUMPDEST PUSH1 0x24 CALLDATALOAD SWAP1 PUSH1 0x1 PUSH1 0x1 PUSH1 0x78 SHL SUB NOT AND PUSH1 0x0 MSTORE PUSH1 0x4 PUSH1 0x20 MSTORE PUSH1 0x40 PUSH1 0x0 KECCAK256 SWAP1 DUP2 SLOAD DUP2 LT ISZERO PUSH2 0x275 JUMPI PUSH2 0x8E6 SWAP2 PUSH2 0x21C8 JUMP JUMPDEST POP PUSH5 0xFFFFFFFFFF DUP2 SLOAD AND PUSH2 0x8FC PUSH1 0x1 DUP4 ADD PUSH2 0x2234 JUMP JUMPDEST SWAP2 PUSH1 0x2 DUP2 ADD SLOAD SWAP1 PUSH1 0x3 PUSH1 0x1 DUP1 PUSH1 0xA0 SHL SUB SWAP2 ADD SLOAD AND PUSH2 0x92C PUSH1 0x40 MLOAD SWAP5 DUP6 SWAP5 DUP6 MSTORE PUSH1 0x80 PUSH1 0x20 DUP7 ADD MSTORE PUSH1 0x80 DUP6 ADD SWAP1 PUSH2 0x20AC JUMP JUMPDEST SWAP2 PUSH1 0x40 DUP5 ADD MSTORE PUSH1 0x60 DUP4 ADD MSTORE SUB SWAP1 RETURN JUMPDEST CALLVALUE PUSH2 0x275 JUMPI PUSH1 0x40 CALLDATASIZE PUSH1 0x3 NOT ADD SLT PUSH2 0x275 JUMPI PUSH2 0x954 PUSH2 0x2095 JUMP JUMPDEST PUSH1 0x24 CALLDATALOAD SWAP1 PUSH1 0x1 PUSH1 0x1 PUSH1 0x78 SHL SUB NOT AND PUSH1 0x0 MSTORE PUSH1 0x5 PUSH1 0x20 MSTORE PUSH1 0x40 PUSH1 0x0 KECCAK256 DUP1 SLOAD DUP3 LT ISZERO PUSH2 0x275 JUMPI PUSH1 0xFF SWAP2 PUSH2 0x984 SWAP2 PUSH2 0x2322 JUMP JUMPDEST POP DUP1 SLOAD SWAP1 PUSH2 0x9D2 PUSH2 0x997 PUSH1 0x1 DUP4 ADD PUSH2 0x2234 JUMP JUMPDEST SWAP2 PUSH1 0x2 PUSH1 0x1 DUP1 PUSH1 0xA0 SHL SUB SWAP2 ADD SLOAD AND SWAP2 PUSH1 0x40 MLOAD SWAP5 DUP5 PUSH5 0xFFFFFFFFFF DUP8 SWAP7 AND DUP7 MSTORE PUSH1 0x28 SHR AND ISZERO ISZERO PUSH1 0x20 DUP6 ADD MSTORE PUSH1 0x80 PUSH1 0x40 DUP6 ADD MSTORE PUSH1 0x80 DUP5 ADD SWAP1 PUSH2 0x20AC JUMP JUMPDEST SWAP1 PUSH1 0x60 DUP4 ADD MSTORE SUB SWAP1 RETURN JUMPDEST CALLVALUE PUSH2 0x275 JUMPI PUSH1 0x20 CALLDATASIZE PUSH1 0x3 NOT ADD SLT PUSH2 0x275 JUMPI PUSH1 0x1 PUSH1 0x1 PUSH1 0x78 SHL SUB NOT PUSH2 0x9FE PUSH2 0x2095 JUMP JUMPDEST AND PUSH1 0x0 MSTORE PUSH1 0x4 PUSH1 0x20 MSTORE PUSH1 0x40 PUSH1 0x0 KECCAK256 DUP1 SLOAD SWAP1 PUSH2 0xA18 DUP3 PUSH2 0x233E JUMP JUMPDEST SWAP2 PUSH2 0xA26 PUSH1 0x40 MLOAD SWAP4 DUP5 PUSH2 0x213E JUMP JUMPDEST DUP1 DUP4 MSTORE PUSH1 0x20 DUP4 ADD DUP1 SWAP3 PUSH1 0x0 MSTORE PUSH1 0x20 PUSH1 0x0 KECCAK256 PUSH1 0x0 SWAP2 JUMPDEST DUP4 DUP4 LT PUSH2 0xADF JUMPI DUP5 DUP7 PUSH1 0x40 MLOAD SWAP2 DUP3 SWAP2 PUSH1 0x20 DUP4 ADD SWAP1 PUSH1 0x20 DUP5 MSTORE MLOAD DUP1 SWAP2 MSTORE PUSH1 0x40 DUP4 ADD SWAP1 PUSH1 0x40 DUP2 PUSH1 0x5 SHL DUP6 ADD ADD SWAP3 SWAP2 PUSH1 0x0 SWAP1 JUMPDEST DUP3 DUP3 LT PUSH2 0xA7A JUMPI POP POP POP POP SUB SWAP1 RETURN JUMPDEST SWAP2 SWAP4 PUSH1 0x1 SWAP2 SWAP4 SWAP6 POP PUSH1 0x20 DUP1 SWAP2 PUSH1 0x3F NOT DUP10 DUP3 SUB ADD DUP6 MSTORE DUP8 MLOAD SWAP1 PUSH5 0xFFFFFFFFFF DUP3 MLOAD AND DUP2 MSTORE PUSH1 0x60 PUSH2 0xAB6 DUP5 DUP5 ADD MLOAD PUSH1 0x80 DUP7 DUP6 ADD MSTORE PUSH1 0x80 DUP5 ADD SWAP1 PUSH2 0x20AC JUMP JUMPDEST SWAP3 PUSH1 0x40 DUP2 ADD MLOAD PUSH1 0x40 DUP5 ADD MSTORE DUP2 DUP8 DUP1 PUSH1 0xA0 SHL SUB SWAP2 ADD MLOAD AND SWAP2 ADD MSTORE SWAP7 ADD SWAP3 ADD SWAP3 ADD DUP6 SWAP5 SWAP4 SWAP2 SWAP3 PUSH2 0xA6B JUMP JUMPDEST PUSH1 0x4 PUSH1 0x20 PUSH1 0x1 SWAP3 PUSH1 0x40 MLOAD PUSH2 0xAF2 DUP2 PUSH2 0x20ED JUMP JUMPDEST PUSH5 0xFFFFFFFFFF DUP7 SLOAD AND DUP2 MSTORE PUSH2 0xB08 DUP6 DUP8 ADD PUSH2 0x2234 JUMP JUMPDEST DUP4 DUP3 ADD MSTORE PUSH1 0x2 DUP7 ADD SLOAD PUSH1 0x40 DUP3 ADD MSTORE DUP5 DUP1 PUSH1 0xA0 SHL SUB PUSH1 0x3 DUP8 ADD SLOAD AND PUSH1 0x60 DUP3 ADD MSTORE DUP2 MSTORE ADD SWAP3 ADD SWAP3 ADD SWAP2 SWAP1 PUSH2 0xA3B JUMP JUMPDEST CALLVALUE PUSH2 0x275 JUMPI PUSH1 0x80 CALLDATASIZE PUSH1 0x3 NOT ADD SLT PUSH2 0x275 JUMPI PUSH2 0xB4E PUSH2 0x2095 JUMP JUMPDEST PUSH2 0xB56 PUSH2 0x22D8 JUMP JUMPDEST SWAP1 PUSH1 0x44 CALLDATALOAD SWAP2 PUSH2 0xFFFF DUP4 AND DUP1 SWAP4 SUB PUSH2 0x275 JUMPI PUSH2 0xB6F PUSH2 0x21B5 JUMP JUMPDEST PUSH1 0x1 PUSH1 0x1 PUSH1 0x78 SHL SUB NOT DUP4 AND PUSH1 0x0 DUP2 DUP2 MSTORE PUSH1 0x1 PUSH1 0x20 MSTORE PUSH1 0x40 SWAP1 KECCAK256 SLOAD SWAP1 SWAP4 SWAP2 SWAP1 PUSH1 0x1 PUSH1 0x1 PUSH1 0xA0 SHL SUB AND PUSH2 0xC86 JUMPI PUSH2 0xC5F SWAP3 PUSH4 0xFFFFFFFF PUSH2 0xC25 SWAP3 PUSH1 0x40 MLOAD SWAP3 PUSH2 0xBB4 DUP5 PUSH2 0x2123 JUMP JUMPDEST PUSH1 0x1 PUSH1 0x1 PUSH1 0xA0 SHL SUB SWAP1 DUP2 AND DUP1 DUP6 MSTORE PUSH1 0x20 DUP1 DUP7 ADD SWAP11 DUP12 MSTORE SWAP3 DUP5 AND PUSH1 0x40 DUP1 DUP8 ADD SWAP2 DUP3 MSTORE PUSH1 0x0 DUP12 DUP2 MSTORE PUSH1 0x1 SWAP1 SWAP6 MSTORE SWAP1 SWAP4 KECCAK256 SWAP5 MLOAD DUP6 SLOAD SWAP11 MLOAD SWAP4 MLOAD PUSH1 0x1 PUSH1 0x1 PUSH1 0xD0 SHL SUB NOT SWAP1 SWAP12 AND SWAP3 AND SWAP2 SWAP1 SWAP2 OR PUSH1 0xA0 SWAP3 SWAP1 SWAP3 SHL PUSH2 0xFFFF PUSH1 0xA0 SHL AND SWAP2 SWAP1 SWAP2 OR SWAP8 SWAP1 SWAP2 AND PUSH1 0xB0 SHL PUSH4 0xFFFFFFFF PUSH1 0xB0 SHL AND SWAP7 SWAP1 SWAP7 OR SWAP1 SSTORE JUMP JUMPDEST DUP3 PUSH1 0x0 MSTORE PUSH1 0x2 PUSH1 0x20 MSTORE PUSH2 0x790 PUSH1 0x40 PUSH1 0x0 KECCAK256 PUSH1 0x40 MLOAD SWAP1 PUSH2 0xC43 DUP3 PUSH2 0x2123 JUMP JUMPDEST DUP7 DUP3 MSTORE PUSH5 0xFFFFFFFFFF TIMESTAMP AND PUSH1 0x20 DUP4 ADD MSTORE PUSH1 0x0 PUSH1 0x40 DUP4 ADD MSTORE PUSH2 0x23D6 JUMP JUMPDEST PUSH32 0x433E5DD5BB0FEE7B9F803052DCFFB101B97612701682E78DC3F120546504BA46 PUSH1 0x0 DUP1 LOG3 STOP JUMPDEST PUSH1 0x40 MLOAD PUSH3 0x461BCD PUSH1 0xE5 SHL DUP2 MSTORE PUSH1 0x20 PUSH1 0x4 DUP3 ADD MSTORE PUSH1 0xA PUSH1 0x24 DUP3 ADD MSTORE PUSH10 0x56494E20657869737473 PUSH1 0xB0 SHL PUSH1 0x44 DUP3 ADD MSTORE PUSH1 0x64 SWAP1 REVERT JUMPDEST CALLVALUE PUSH2 0x275 JUMPI PUSH1 0x20 CALLDATASIZE PUSH1 0x3 NOT ADD SLT PUSH2 0x275 JUMPI PUSH1 0x1 PUSH1 0x1 PUSH1 0x78 SHL SUB NOT PUSH2 0xCDA PUSH2 0x2095 JUMP JUMPDEST AND PUSH1 0x0 MSTORE PUSH1 0x1 PUSH1 0x20 MSTORE PUSH1 0x60 PUSH1 0x40 PUSH1 0x0 KECCAK256 SLOAD PUSH4 0xFFFFFFFF PUSH1 0x40 MLOAD SWAP2 PUSH1 0x1 DUP1 PUSH1 0xA0 SHL SUB DUP2 AND DUP4 MSTORE PUSH2 0xFFFF DUP2 PUSH1 0xA0 SHR AND PUSH1 0x20 DUP5 ADD MSTORE PUSH1 0xB0 SHR AND PUSH1 0x40 DUP3 ADD MSTORE RETURN JUMPDEST CALLVALUE PUSH2 0x275 JUMPI PUSH1 0x40 CALLDATASIZE PUSH1 0x3 NOT ADD SLT PUSH2 0x275 JUMPI PUSH2 0xD30 PUSH2 0x2095 JUMP JUMPDEST PUSH1 0x24 CALLDATALOAD SWAP1 PUSH1 0x1 PUSH1 0x1 PUSH1 0x78 SHL SUB NOT AND PUSH1 0x0 MSTORE PUSH1 0x3 PUSH1 0x20 MSTORE PUSH1 0x40 PUSH1 0x0 KECCAK256 SWAP1 DUP2 SLOAD DUP2 LT ISZERO PUSH2 0x275 JUMPI PUSH2 0xD5E SWAP2 PUSH2 0x2306 JUMP JUMPDEST POP PUSH5 0xFFFFFFFFFF DUP2 SLOAD AND PUSH1 0x1 DUP3 ADD SLOAD SWAP2 PUSH2 0xD7A PUSH1 0x2 DUP3 ADD PUSH2 0x2234 JUMP JUMPDEST PUSH2 0xDAF PUSH1 0x3 DUP4 ADD SLOAD SWAP3 PUSH1 0x4 PUSH1 0x1 DUP1 PUSH1 0xA0 SHL SUB SWAP2 ADD SLOAD AND SWAP2 PUSH1 0x40 MLOAD SWAP6 DUP7 SWAP6 DUP7 MSTORE PUSH1 0x20 DUP7 ADD MSTORE PUSH1 0xA0 PUSH1 0x40 DUP7 ADD MSTORE PUSH1 0xA0 DUP6 ADD SWAP1 PUSH2 0x20AC JUMP JUMPDEST SWAP2 PUSH1 0x60 DUP5 ADD MSTORE PUSH1 0x80 DUP4 ADD MSTORE SUB SWAP1 RETURN JUMPDEST CALLVALUE PUSH2 0x275 JUMPI PUSH1 0x0 CALLDATASIZE PUSH1 0x3 NOT ADD SLT PUSH2 0x275 JUMPI PUSH1 0x20 PUSH1 0x40 MLOAD PUSH1 0x0 DUP2 MSTORE RETURN JUMPDEST CALLVALUE PUSH2 0x275 JUMPI PUSH1 0x20 CALLDATASIZE PUSH1 0x3 NOT ADD SLT PUSH2 0x275 JUMPI PUSH1 0xE0 PUSH1 0x1 PUSH1 0x1 PUSH1 0x78 SHL SUB NOT PUSH2 0xDFE PUSH2 0x2095 JUMP JUMPDEST AND PUSH1 0x0 DUP2 DUP2 MSTORE PUSH1 0x1 PUSH1 0x20 MSTORE PUSH1 0x40 SWAP1 KECCAK256 SLOAD PUSH2 0xE22 SWAP1 PUSH1 0x1 PUSH1 0x1 PUSH1 0xA0 SHL SUB AND ISZERO ISZERO PUSH2 0x2355 JUMP JUMPDEST DUP1 PUSH1 0x0 MSTORE PUSH1 0x1 PUSH1 0x20 MSTORE PUSH1 0x40 PUSH1 0x0 KECCAK256 SLOAD SWAP1 DUP1 PUSH1 0x0 MSTORE PUSH1 0x3 PUSH1 0x20 MSTORE PUSH4 0xFFFFFFFF PUSH1 0x40 PUSH1 0x0 KECCAK256 SLOAD AND SWAP1 DUP1 PUSH1 0x0 MSTORE PUSH1 0x4 PUSH1 0x20 MSTORE PUSH4 0xFFFFFFFF PUSH1 0x40 PUSH1 0x0 KECCAK256 SLOAD AND DUP2 PUSH1 0x0 MSTORE PUSH1 0x5 PUSH1 0x20 MSTORE PUSH4 0xFFFFFFFF PUSH1 0x40 PUSH1 0x0 KECCAK256 SLOAD AND SWAP2 PUSH1 0x0 MSTORE PUSH1 0x6 PUSH1 0x20 MSTORE PUSH4 0xFFFFFFFF PUSH1 0x40 PUSH1 0x0 KECCAK256 SLOAD AND SWAP3 PUSH4 0xFFFFFFFF PUSH1 0x40 MLOAD SWAP6 PUSH1 0x1 DUP1 PUSH1 0xA0 SHL SUB DUP2 AND DUP8 MSTORE PUSH2 0xFFFF DUP2 PUSH1 0xA0 SHR AND PUSH1 0x20 DUP9 ADD MSTORE PUSH1 0xB0 SHR AND PUSH1 0x40 DUP7 ADD MSTORE PUSH1 0x60 DUP6 ADD MSTORE PUSH1 0x80 DUP5 ADD MSTORE PUSH1 0xA0 DUP4 ADD MSTORE PUSH1 0xC0 DUP3 ADD MSTORE RETURN JUMPDEST CALLVALUE PUSH2 0x275 JUMPI PUSH1 0x60 CALLDATASIZE PUSH1 0x3 NOT ADD SLT PUSH2 0x275 JUMPI PUSH2 0xEE1 PUSH2 0x2095 JUMP JUMPDEST PUSH1 0x24 CALLDATALOAD PUSH1 0x1 PUSH1 0x1 PUSH1 0x40 SHL SUB DUP2 GT PUSH2 0x275 JUMPI PUSH2 0xF00 SWAP1 CALLDATASIZE SWAP1 PUSH1 0x4 ADD PUSH2 0x215F JUMP JUMPDEST PUSH1 0x44 CALLDATALOAD PUSH1 0x1 PUSH1 0x1 PUSH1 0x40 SHL SUB DUP2 GT PUSH2 0x275 JUMPI PUSH2 0xF1F SWAP1 CALLDATASIZE SWAP1 PUSH1 0x4 ADD PUSH2 0x215F JUMP JUMPDEST PUSH1 0x1 PUSH1 0x1 PUSH1 0x78 SHL SUB NOT SWAP1 SWAP3 AND PUSH1 0x0 DUP2 DUP2 MSTORE PUSH1 0x1 PUSH1 0x20 MSTORE PUSH1 0x40 SWAP1 KECCAK256 SLOAD PUSH2 0xF4E SWAP1 PUSH1 0x1 PUSH1 0x1 PUSH1 0xA0 SHL SUB AND ISZERO ISZERO PUSH2 0x2355 JUMP JUMPDEST PUSH2 0xF56 PUSH2 0x24DF JUMP JUMPDEST DUP1 PUSH1 0x0 MSTORE PUSH1 0x6 PUSH1 0x20 MSTORE PUSH1 0x40 PUSH1 0x0 KECCAK256 SWAP3 PUSH1 0x40 MLOAD PUSH2 0xF71 DUP2 PUSH2 0x20ED JUMP JUMPDEST PUSH5 0xFFFFFFFFFF TIMESTAMP AND DUP2 MSTORE PUSH1 0x20 DUP2 ADD SWAP5 DUP5 DUP7 MSTORE PUSH1 0x40 DUP3 ADD SWAP6 DUP4 DUP8 MSTORE PUSH1 0x60 DUP4 ADD SWAP2 CALLER DUP4 MSTORE DUP1 SLOAD PUSH1 0x1 PUSH1 0x40 SHL DUP2 LT ISZERO PUSH2 0x59E JUMPI PUSH2 0xFB0 SWAP2 PUSH1 0x1 DUP3 ADD DUP2 SSTORE PUSH2 0x21C8 JUMP JUMPDEST SWAP4 SWAP1 SWAP4 PUSH2 0x5B4 JUMPI MLOAD DUP4 SLOAD PUSH5 0xFFFFFFFFFF NOT AND PUSH5 0xFFFFFFFFFF SWAP2 SWAP1 SWAP2 AND OR DUP4 SSTORE MLOAD DUP1 MLOAD PUSH1 0x1 DUP5 ADD SWAP2 PUSH1 0x1 PUSH1 0x1 PUSH1 0x40 SHL SUB DUP3 GT PUSH2 0x59E JUMPI DUP2 SWAP1 PUSH2 0xFF1 DUP5 SLOAD PUSH2 0x21FA JUMP JUMPDEST PUSH1 0x1F DUP2 GT PUSH2 0x1249 JUMPI JUMPDEST POP PUSH1 0x20 SWAP1 PUSH1 0x1F DUP4 GT PUSH1 0x1 EQ PUSH2 0x11E4 JUMPI PUSH1 0x0 SWAP3 PUSH2 0x11D9 JUMPI JUMPDEST POP POP DUP2 PUSH1 0x1 SHL SWAP2 PUSH1 0x0 NOT SWAP1 PUSH1 0x3 SHL SHR NOT AND OR SWAP1 SSTORE JUMPDEST PUSH1 0x2 DUP3 ADD SWAP6 MLOAD SWAP6 DUP7 MLOAD PUSH1 0x1 PUSH1 0x1 PUSH1 0x40 SHL SUB DUP2 GT PUSH2 0x59E JUMPI PUSH2 0x1047 DUP3 SLOAD PUSH2 0x21FA JUMP JUMPDEST PUSH1 0x1F DUP2 GT PUSH2 0x1191 JUMPI JUMPDEST POP PUSH1 0x20 PUSH1 0x1F DUP3 GT PUSH1 0x1 EQ PUSH2 0x1102 JUMPI SWAP2 DUP2 PUSH2 0x4B6 SWAP7 SWAP6 SWAP5 SWAP3 PUSH1 0x3 SWAP5 PUSH32 0xA177137E7ACDB7A8A9E37D2B57F13306C2AB30BBF4F82E51C3790A83D3C4B748 SWAP12 PUSH1 0x0 SWAP3 PUSH2 0x10F7 JUMPI JUMPDEST POP POP DUP2 PUSH1 0x1 SHL SWAP2 PUSH1 0x0 NOT SWAP1 DUP7 SHL SHR NOT AND OR SWAP1 SSTORE JUMPDEST MLOAD SWAP2 ADD DUP1 SLOAD PUSH1 0x1 PUSH1 0x1 PUSH1 0xA0 SHL SUB NOT AND PUSH1 0x1 PUSH1 0x1 PUSH1 0xA0 SHL SUB SWAP3 SWAP1 SWAP3 AND SWAP2 SWAP1 SWAP2 OR SWAP1 SSTORE PUSH1 0x40 MLOAD SWAP3 DUP4 MSTORE PUSH1 0x60 PUSH1 0x20 DUP5 ADD DUP2 SWAP1 MSTORE SWAP3 SWAP4 DUP5 SWAP4 PUSH2 0x10E9 SWAP2 SWAP1 DUP6 ADD SWAP1 PUSH2 0x20AC JUMP JUMPDEST SWAP1 DUP4 DUP3 SUB PUSH1 0x40 DUP6 ADD MSTORE PUSH2 0x20AC JUMP JUMPDEST ADD MLOAD SWAP1 POP DUP12 DUP1 PUSH2 0x1094 JUMP JUMPDEST PUSH1 0x1F NOT DUP3 AND SWAP9 DUP4 PUSH1 0x0 MSTORE DUP2 PUSH1 0x0 KECCAK256 SWAP10 PUSH1 0x0 JUMPDEST DUP2 DUP2 LT PUSH2 0x1179 JUMPI POP SWAP3 PUSH32 0xA177137E7ACDB7A8A9E37D2B57F13306C2AB30BBF4F82E51C3790A83D3C4B748 SWAP11 PUSH1 0x3 SWAP6 SWAP4 PUSH1 0x1 SWAP4 DUP4 PUSH2 0x4B6 SWAP12 SWAP11 SWAP10 SWAP8 LT PUSH2 0x1161 JUMPI JUMPDEST POP POP POP DUP2 SHL ADD SWAP1 SSTORE PUSH2 0x10A8 JUMP JUMPDEST ADD MLOAD PUSH1 0x0 NOT DUP4 DUP9 SHL PUSH1 0xF8 AND SHR NOT AND SWAP1 SSTORE DUP12 DUP1 DUP1 PUSH2 0x1154 JUMP JUMPDEST DUP4 DUP4 ADD MLOAD DUP13 SSTORE PUSH1 0x1 SWAP1 SWAP12 ADD SWAP11 PUSH1 0x20 SWAP4 DUP5 ADD SWAP4 ADD PUSH2 0x1114 JUMP JUMPDEST DUP3 PUSH1 0x0 MSTORE PUSH1 0x20 PUSH1 0x0 KECCAK256 PUSH1 0x1F DUP4 ADD PUSH1 0x5 SHR DUP2 ADD SWAP2 PUSH1 0x20 DUP5 LT PUSH2 0x11CF JUMPI JUMPDEST PUSH1 0x1F ADD PUSH1 0x5 SHR ADD SWAP1 JUMPDEST DUP2 DUP2 LT PUSH2 0x11C3 JUMPI POP PUSH2 0x1050 JUMP JUMPDEST PUSH1 0x0 DUP2 SSTORE PUSH1 0x1 ADD PUSH2 0x11B6 JUMP JUMPDEST SWAP1 SWAP2 POP DUP2 SWAP1 PUSH2 0x11AD JUMP JUMPDEST ADD MLOAD SWAP1 POP DUP10 DUP1 PUSH2 0x1011 JUMP JUMPDEST PUSH1 0x0 DUP6 DUP2 MSTORE DUP3 DUP2 KECCAK256 SWAP4 POP PUSH1 0x1F NOT DUP6 AND SWAP1 JUMPDEST DUP2 DUP2 LT PUSH2 0x1231 JUMPI POP SWAP1 DUP5 PUSH1 0x1 SWAP6 SWAP5 SWAP4 SWAP3 LT PUSH2 0x1218 JUMPI JUMPDEST POP POP POP DUP2 SHL ADD SWAP1 SSTORE PUSH2 0x1026 JUMP JUMPDEST ADD MLOAD PUSH1 0x0 NOT PUSH1 0xF8 DUP5 PUSH1 0x3 SHL AND SHR NOT AND SWAP1 SSTORE DUP10 DUP1 DUP1 PUSH2 0x120B JUMP JUMPDEST SWAP3 SWAP4 PUSH1 0x20 PUSH1 0x1 DUP2 SWAP3 DUP8 DUP7 ADD MLOAD DUP2 SSTORE ADD SWAP6 ADD SWAP4 ADD PUSH2 0x11F5 JUMP JUMPDEST SWAP1 SWAP2 POP DUP4 PUSH1 0x0 MSTORE PUSH1 0x20 PUSH1 0x0 KECCAK256 PUSH1 0x1F DUP5 ADD PUSH1 0x5 SHR DUP2 ADD SWAP2 PUSH1 0x20 DUP6 LT PUSH2 0x1292 JUMPI JUMPDEST SWAP1 PUSH1 0x1F DUP6 SWAP5 SWAP4 SWAP3 ADD PUSH1 0x5 SHR ADD SWAP1 JUMPDEST DUP2 DUP2 LT PUSH2 0x1283 JUMPI POP PUSH2 0xFFA JUMP JUMPDEST PUSH1 0x0 DUP2 SSTORE DUP5 SWAP4 POP PUSH1 0x1 ADD PUSH2 0x1276 JUMP JUMPDEST SWAP1 SWAP2 POP DUP2 SWAP1 PUSH2 0x1268 JUMP JUMPDEST CALLVALUE PUSH2 0x275 JUMPI PUSH1 0x40 CALLDATASIZE PUSH1 0x3 NOT ADD SLT PUSH2 0x275 JUMPI PUSH2 0x12B5 PUSH2 0x22D8 JUMP JUMPDEST PUSH1 0x4 CALLDATALOAD PUSH1 0x0 MSTORE PUSH1 0x0 PUSH1 0x20 MSTORE PUSH1 0x40 PUSH1 0x0 KECCAK256 SWAP1 PUSH1 0x1 DUP1 PUSH1 0xA0 SHL SUB AND PUSH1 0x0 MSTORE PUSH1 0x20 MSTORE PUSH1 0x20 PUSH1 0xFF PUSH1 0x40 PUSH1 0x0 KECCAK256 SLOAD AND PUSH1 0x40 MLOAD SWAP1 ISZERO ISZERO DUP2 MSTORE RETURN JUMPDEST CALLVALUE PUSH2 0x275 JUMPI PUSH1 0x20 CALLDATASIZE PUSH1 0x3 NOT ADD SLT PUSH2 0x275 JUMPI PUSH1 0x1 PUSH1 0x1 PUSH1 0x78 SHL SUB NOT PUSH2 0x130B PUSH2 0x2095 JUMP JUMPDEST AND PUSH1 0x0 MSTORE PUSH1 0x3 PUSH1 0x20 MSTORE PUSH1 0x40 PUSH1 0x0 KECCAK256 DUP1 SLOAD SWAP1 PUSH2 0x1325 DUP3 PUSH2 0x233E JUMP JUMPDEST SWAP2 PUSH2 0x1333 PUSH1 0x40 MLOAD SWAP4 DUP5 PUSH2 0x213E JUMP JUMPDEST DUP1 DUP4 MSTORE PUSH1 0x20 DUP4 ADD DUP1 SWAP3 PUSH1 0x0 MSTORE PUSH1 0x20 PUSH1 0x0 KECCAK256 PUSH1 0x0 SWAP2 JUMPDEST DUP4 DUP4 LT PUSH2 0x13F6 JUMPI DUP5 DUP7 PUSH1 0x40 MLOAD SWAP2 DUP3 SWAP2 PUSH1 0x20 DUP4 ADD SWAP1 PUSH1 0x20 DUP5 MSTORE MLOAD DUP1 SWAP2 MSTORE PUSH1 0x40 DUP4 ADD SWAP1 PUSH1 0x40 DUP2 PUSH1 0x5 SHL DUP6 ADD ADD SWAP3 SWAP2 PUSH1 0x0 SWAP1 JUMPDEST DUP3 DUP3 LT PUSH2 0x1387 JUMPI POP POP POP POP SUB SWAP1 RETURN JUMPDEST SWAP2 SWAP4 PUSH1 0x1 SWAP2 SWAP4 SWAP6 POP PUSH1 0x20 DUP1 SWAP2 PUSH1 0x3F NOT DUP10 DUP3 SUB ADD DUP6 MSTORE DUP8 MLOAD SWAP1 PUSH5 0xFFFFFFFFFF DUP3 MLOAD AND DUP2 MSTORE DUP3 DUP3 ADD MLOAD DUP4 DUP3 ADD MSTORE PUSH1 0x80 PUSH2 0x13CD PUSH1 0x40 DUP5 ADD MLOAD PUSH1 0xA0 PUSH1 0x40 DUP6 ADD MSTORE PUSH1 0xA0 DUP5 ADD SWAP1 PUSH2 0x20AC JUMP JUMPDEST SWAP3 PUSH1 0x60 DUP2 ADD MLOAD PUSH1 0x60 DUP5 ADD MSTORE DUP2 DUP8 DUP1 PUSH1 0xA0 SHL SUB SWAP2 ADD MLOAD AND SWAP2 ADD MSTORE SWAP7 ADD SWAP3 ADD SWAP3 ADD DUP6 SWAP5 SWAP4 SWAP2 SWAP3 PUSH2 0x1378 JUMP JUMPDEST PUSH1 0x5 PUSH1 0x20 PUSH1 0x1 SWAP3 PUSH1 0x40 MLOAD PUSH2 0x1409 DUP2 PUSH2 0x2108 JUMP JUMPDEST PUSH5 0xFFFFFFFFFF DUP7 SLOAD AND DUP2 MSTORE DUP5 DUP7 ADD SLOAD DUP4 DUP3 ADD MSTORE PUSH2 0x1428 PUSH1 0x2 DUP8 ADD PUSH2 0x2234 JUMP JUMPDEST PUSH1 0x40 DUP3 ADD MSTORE PUSH1 0x3 DUP7 ADD SLOAD PUSH1 0x60 DUP3 ADD MSTORE DUP5 DUP1 PUSH1 0xA0 SHL SUB PUSH1 0x4 DUP8 ADD SLOAD AND PUSH1 0x80 DUP3 ADD MSTORE DUP2 MSTORE ADD SWAP3 ADD SWAP3 ADD SWAP2 SWAP1 PUSH2 0x1348 JUMP JUMPDEST CALLVALUE PUSH2 0x275 JUMPI PUSH1 0x40 CALLDATASIZE PUSH1 0x3 NOT ADD SLT PUSH2 0x275 JUMPI PUSH2 0x146F PUSH2 0x2095 JUMP JUMPDEST PUSH1 0x24 CALLDATALOAD SWAP1 PUSH1 0x1 PUSH1 0x1 PUSH1 0x78 SHL SUB NOT AND PUSH1 0x0 MSTORE PUSH1 0x2 PUSH1 0x20 MSTORE PUSH1 0x40 PUSH1 0x0 KECCAK256 DUP1 SLOAD DUP3 LT ISZERO PUSH2 0x275 JUMPI PUSH1 0x60 SWAP2 PUSH2 0x149F SWAP2 PUSH2 0x22EE JUMP JUMPDEST POP SLOAD PUSH5 0xFFFFFFFFFF PUSH1 0x40 MLOAD SWAP2 PUSH1 0x1 DUP1 PUSH1 0xA0 SHL SUB DUP2 AND DUP4 MSTORE DUP2 DUP2 PUSH1 0xA0 SHR AND PUSH1 0x20 DUP5 ADD MSTORE PUSH1 0xC8 SHR AND PUSH1 0x40 DUP3 ADD MSTORE RETURN JUMPDEST CALLVALUE PUSH2 0x275 JUMPI PUSH1 0x0 CALLDATASIZE PUSH1 0x3 NOT ADD SLT PUSH2 0x275 JUMPI PUSH1 0x20 PUSH1 0x40 MLOAD PUSH32 0x1AC05CDED273D7237DFBBD305BBD7CD47A33EB42BF9F7D2307B7784016772FC0 DUP2 MSTORE RETURN JUMPDEST CALLVALUE PUSH2 0x275 JUMPI PUSH1 0x0 CALLDATASIZE PUSH1 0x3 NOT ADD SLT PUSH2 0x275 JUMPI CALLER PUSH1 0x0 MSTORE PUSH1 0x7 PUSH1 0x20 MSTORE PUSH1 0x40 PUSH1 0x0 KECCAK256 PUSH1 0x40 MLOAD DUP1 PUSH1 0x20 DUP4 SLOAD SWAP2 DUP3 DUP2 MSTORE ADD SWAP1 DUP2 SWAP4 PUSH1 0x0 MSTORE PUSH1 0x20 PUSH1 0x0 KECCAK256 SWAP1 PUSH1 0x0 JUMPDEST DUP2 DUP2 LT PUSH2 0x15A5 JUMPI POP POP POP DUP2 PUSH2 0x1558 SWAP2 SUB DUP3 PUSH2 0x213E JUMP JUMPDEST PUSH1 0x40 MLOAD SWAP2 DUP3 SWAP2 PUSH1 0x20 DUP4 ADD SWAP1 PUSH1 0x20 DUP5 MSTORE MLOAD DUP1 SWAP2 MSTORE PUSH1 0x40 DUP4 ADD SWAP2 SWAP1 PUSH1 0x0 JUMPDEST DUP2 DUP2 LT PUSH2 0x1582 JUMPI POP POP POP SUB SWAP1 RETURN JUMPDEST DUP3 MLOAD PUSH1 0x1 PUSH1 0x1 PUSH1 0x78 SHL SUB NOT AND DUP5 MSTORE DUP6 SWAP5 POP PUSH1 0x20 SWAP4 DUP5 ADD SWAP4 SWAP1 SWAP3 ADD SWAP2 PUSH1 0x1 ADD PUSH2 0x1574 JUMP JUMPDEST DUP3 SLOAD PUSH1 0x78 SHL PUSH1 0x1 PUSH1 0x1 PUSH1 0x78 SHL SUB NOT AND DUP5 MSTORE PUSH1 0x20 SWAP1 SWAP4 ADD SWAP3 PUSH1 0x1 SWAP3 DUP4 ADD SWAP3 ADD PUSH2 0x1542 JUMP JUMPDEST CALLVALUE PUSH2 0x275 JUMPI PUSH1 0xA0 CALLDATASIZE PUSH1 0x3 NOT ADD SLT PUSH2 0x275 JUMPI PUSH2 0x15E1 PUSH2 0x2095 JUMP JUMPDEST PUSH1 0x24 CALLDATALOAD SWAP1 PUSH1 0x44 CALLDATALOAD PUSH1 0x1 PUSH1 0x1 PUSH1 0x40 SHL SUB DUP2 GT PUSH2 0x275 JUMPI PUSH2 0x1604 SWAP1 CALLDATASIZE SWAP1 PUSH1 0x4 ADD PUSH2 0x215F JUMP JUMPDEST SWAP2 PUSH1 0x64 CALLDATALOAD SWAP1 PUSH1 0x84 CALLDATALOAD SWAP3 PUSH4 0xFFFFFFFF DUP5 AND SWAP4 DUP5 DUP2 SUB PUSH2 0x275 JUMPI PUSH2 0x1676 PUSH2 0x16A7 SWAP3 PUSH1 0x1 PUSH1 0x1 PUSH1 0x78 SHL SUB NOT AND SWAP6 DUP7 PUSH1 0x0 MSTORE PUSH1 0x1 PUSH1 0x20 MSTORE PUSH2 0x164F PUSH1 0x1 DUP1 PUSH1 0xA0 SHL SUB PUSH1 0x40 PUSH1 0x0 KECCAK256 SLOAD AND ISZERO ISZERO PUSH2 0x2355 JUMP JUMPDEST PUSH2 0x1657 PUSH2 0x246D JUMP JUMPDEST DUP7 PUSH1 0x0 MSTORE PUSH1 0x1 PUSH1 0x20 MSTORE PUSH4 0xFFFFFFFF PUSH1 0x40 PUSH1 0x0 KECCAK256 SLOAD PUSH1 0xB0 SHR AND GT ISZERO PUSH2 0x2396 JUMP JUMPDEST PUSH1 0x0 DUP6 DUP2 MSTORE PUSH1 0x1 PUSH1 0x20 MSTORE PUSH1 0x40 SWAP1 KECCAK256 DUP1 SLOAD PUSH4 0xFFFFFFFF PUSH1 0xB0 SHL NOT AND PUSH1 0xB0 SWAP3 SWAP1 SWAP3 SHL PUSH4 0xFFFFFFFF PUSH1 0xB0 SHL AND SWAP2 SWAP1 SWAP2 OR SWAP1 SSTORE JUMP JUMPDEST DUP3 PUSH1 0x0 MSTORE PUSH1 0x3 PUSH1 0x20 MSTORE PUSH1 0x40 PUSH1 0x0 KECCAK256 PUSH1 0x40 MLOAD SWAP1 PUSH2 0x16C2 DUP3 PUSH2 0x2108 JUMP JUMPDEST PUSH5 0xFFFFFFFFFF TIMESTAMP AND DUP3 MSTORE PUSH1 0x20 DUP3 ADD DUP4 DUP2 MSTORE PUSH1 0x40 DUP4 ADD SWAP7 DUP8 MSTORE PUSH1 0x60 DUP4 ADD SWAP1 DUP6 DUP3 MSTORE PUSH1 0x80 DUP5 ADD SWAP3 CALLER DUP5 MSTORE DUP1 SLOAD PUSH1 0x1 PUSH1 0x40 SHL DUP2 LT ISZERO PUSH2 0x59E JUMPI PUSH2 0x1707 SWAP2 PUSH1 0x1 DUP3 ADD DUP2 SSTORE PUSH2 0x2306 JUMP JUMPDEST SWAP5 SWAP1 SWAP5 PUSH2 0x5B4 JUMPI PUSH5 0xFFFFFFFFFF DUP1 SWAP2 MLOAD AND AND PUSH5 0xFFFFFFFFFF NOT DUP6 SLOAD AND OR DUP5 SSTORE MLOAD PUSH1 0x1 DUP5 ADD SSTORE PUSH1 0x2 DUP4 ADD SWAP7 MLOAD SWAP7 DUP8 MLOAD PUSH1 0x1 PUSH1 0x1 PUSH1 0x40 SHL SUB DUP2 GT PUSH2 0x59E JUMPI PUSH2 0x174D DUP3 SLOAD PUSH2 0x21FA JUMP JUMPDEST PUSH1 0x1F DUP2 GT PUSH2 0x188A JUMPI JUMPDEST POP PUSH1 0x20 PUSH1 0x1F DUP3 GT PUSH1 0x1 EQ PUSH2 0x17F8 JUMPI SWAP2 DUP2 PUSH1 0x4 SWAP5 SWAP3 PUSH1 0x60 SWAP11 SWAP10 SWAP9 SWAP8 SWAP7 SWAP5 PUSH32 0x999768443068A7F889BCD2C2DC54B5BA049BBBBCE89CCC8685595A6B510DE7E2 SWAP13 PUSH1 0x0 SWAP3 PUSH2 0x17ED JUMPI JUMPDEST POP POP DUP2 PUSH1 0x1 SHL SWAP2 PUSH1 0x0 NOT SWAP1 PUSH1 0x3 SHL SHR NOT AND OR SWAP1 SSTORE JUMPDEST MLOAD PUSH1 0x3 DUP5 ADD SSTORE MLOAD SWAP2 ADD DUP1 SLOAD PUSH1 0x1 PUSH1 0x1 PUSH1 0xA0 SHL SUB NOT AND PUSH1 0x1 PUSH1 0x1 PUSH1 0xA0 SHL SUB SWAP3 SWAP1 SWAP3 AND SWAP2 SWAP1 SWAP2 OR SWAP1 SSTORE PUSH1 0x40 DUP1 MLOAD SWAP4 DUP5 MSTORE PUSH1 0x20 DUP5 ADD SWAP2 SWAP1 SWAP2 MSTORE DUP3 ADD MSTORE LOG1 STOP JUMPDEST ADD MLOAD SWAP1 POP DUP13 DUP1 PUSH2 0x179C JUMP JUMPDEST PUSH1 0x1F NOT DUP3 AND SWAP10 DUP4 PUSH1 0x0 MSTORE DUP2 PUSH1 0x0 KECCAK256 SWAP11 PUSH1 0x0 JUMPDEST DUP2 DUP2 LT PUSH2 0x1872 JUMPI POP SWAP3 PUSH32 0x999768443068A7F889BCD2C2DC54B5BA049BBBBCE89CCC8685595A6B510DE7E2 SWAP12 PUSH1 0x60 SWAP12 SWAP11 SWAP10 SWAP9 SWAP8 SWAP6 SWAP4 PUSH1 0x1 SWAP4 DUP4 PUSH1 0x4 SWAP10 SWAP8 LT PUSH2 0x1859 JUMPI JUMPDEST POP POP POP DUP2 SHL ADD SWAP1 SSTORE PUSH2 0x17B1 JUMP JUMPDEST ADD MLOAD PUSH1 0x0 NOT PUSH1 0xF8 DUP5 PUSH1 0x3 SHL AND SHR NOT AND SWAP1 SSTORE DUP13 DUP1 DUP1 PUSH2 0x184C JUMP JUMPDEST DUP4 DUP4 ADD MLOAD DUP14 SSTORE PUSH1 0x1 SWAP1 SWAP13 ADD SWAP12 PUSH1 0x20 SWAP4 DUP5 ADD SWAP4 ADD PUSH2 0x180A JUMP JUMPDEST DUP3 PUSH1 0x0 MSTORE PUSH1 0x20 PUSH1 0x0 KECCAK256 PUSH1 0x1F DUP4 ADD PUSH1 0x5 SHR DUP2 ADD SWAP2 PUSH1 0x20 DUP5 LT PUSH2 0x18C8 JUMPI JUMPDEST PUSH1 0x1F ADD PUSH1 0x5 SHR ADD SWAP1 JUMPDEST DUP2 DUP2 LT PUSH2 0x18BC JUMPI POP PUSH2 0x1756 JUMP JUMPDEST PUSH1 0x0 DUP2 SSTORE PUSH1 0x1 ADD PUSH2 0x18AF JUMP JUMPDEST SWAP1 SWAP2 POP DUP2 SWAP1 PUSH2 0x18A6 JUMP JUMPDEST CALLVALUE PUSH2 0x275 JUMPI PUSH1 0x40 CALLDATASIZE PUSH1 0x3 NOT ADD SLT PUSH2 0x275 JUMPI PUSH2 0x18EB PUSH2 0x22D8 JUMP JUMPDEST CALLER PUSH1 0x1 PUSH1 0x1 PUSH1 0xA0 SHL SUB DUP3 AND SUB PUSH2 0x1907 JUMPI PUSH2 0x89D SWAP1 PUSH1 0x4 CALLDATALOAD PUSH2 0x2617 JUMP JUMPDEST PUSH4 0x334BD919 PUSH1 0xE1 SHL PUSH1 0x0 MSTORE PUSH1 0x4 PUSH1 0x0 REVERT JUMPDEST CALLVALUE PUSH2 0x275 JUMPI PUSH1 0x40 CALLDATASIZE PUSH1 0x3 NOT ADD SLT PUSH2 0x275 JUMPI PUSH1 0x4 CALLDATALOAD PUSH1 0x1 PUSH1 0x1 PUSH1 0xA0 SHL SUB DUP2 AND SWAP1 DUP2 SWAP1 SUB PUSH2 0x275 JUMPI PUSH1 0x24 CALLDATALOAD SWAP1 PUSH1 0x0 MSTORE PUSH1 0x7 PUSH1 0x20 MSTORE PUSH1 0x40 PUSH1 0x0 KECCAK256 DUP1 SLOAD DUP3 LT ISZERO PUSH2 0x275 JUMPI PUSH1 0x20 SWAP2 PUSH2 0x1964 SWAP2 PUSH2 0x22EE JUMP JUMPDEST SWAP1 SLOAD SWAP1 PUSH1 0x3 SHL SHR PUSH1 0x78 SHL PUSH1 0x40 MLOAD SWAP1 PUSH1 0x1 PUSH1 0x1 PUSH1 0x78 SHL SUB NOT AND DUP2 MSTORE RETURN JUMPDEST CALLVALUE PUSH2 0x275 JUMPI PUSH1 0x40 CALLDATASIZE PUSH1 0x3 NOT ADD SLT PUSH2 0x275 JUMPI PUSH2 0x89D PUSH1 0x4 CALLDATALOAD PUSH2 0x199F PUSH2 0x22D8 JUMP JUMPDEST SWAP1 PUSH2 0x19BB PUSH2 0x893 DUP3 PUSH1 0x0 MSTORE PUSH1 0x0 PUSH1 0x20 MSTORE PUSH1 0x1 PUSH1 0x40 PUSH1 0x0 KECCAK256 ADD SLOAD SWAP1 JUMP JUMPDEST PUSH2 0x258C JUMP JUMPDEST CALLVALUE PUSH2 0x275 JUMPI PUSH1 0x20 CALLDATASIZE PUSH1 0x3 NOT ADD SLT PUSH2 0x275 JUMPI PUSH1 0x1 PUSH1 0x1 PUSH1 0x78 SHL SUB NOT PUSH2 0x19E2 PUSH2 0x2095 JUMP JUMPDEST AND PUSH1 0x0 MSTORE PUSH1 0x5 PUSH1 0x20 MSTORE PUSH1 0x40 PUSH1 0x0 KECCAK256 DUP1 SLOAD SWAP1 PUSH2 0x19FC DUP3 PUSH2 0x233E JUMP JUMPDEST SWAP2 PUSH2 0x1A0A PUSH1 0x40 MLOAD SWAP4 DUP5 PUSH2 0x213E JUMP JUMPDEST DUP1 DUP4 MSTORE PUSH1 0x20 DUP4 ADD DUP1 SWAP3 PUSH1 0x0 MSTORE PUSH1 0x20 PUSH1 0x0 KECCAK256 PUSH1 0x0 SWAP2 JUMPDEST DUP4 DUP4 LT PUSH2 0x1AC5 JUMPI DUP5 DUP7 PUSH1 0x40 MLOAD SWAP2 DUP3 SWAP2 PUSH1 0x20 DUP4 ADD SWAP1 PUSH1 0x20 DUP5 MSTORE MLOAD DUP1 SWAP2 MSTORE PUSH1 0x40 DUP4 ADD SWAP1 PUSH1 0x40 DUP2 PUSH1 0x5 SHL DUP6 ADD ADD SWAP3 SWAP2 PUSH1 0x0 SWAP1 JUMPDEST DUP3 DUP3 LT PUSH2 0x1A5E JUMPI POP POP POP POP SUB SWAP1 RETURN JUMPDEST SWAP2 SWAP4 PUSH1 0x1 SWAP2 SWAP4 SWAP6 POP PUSH1 0x20 DUP1 SWAP2 PUSH1 0x3F NOT DUP10 DUP3 SUB ADD DUP6 MSTORE DUP8 MLOAD SWAP1 PUSH5 0xFFFFFFFFFF DUP3 MLOAD AND DUP2 MSTORE DUP3 DUP3 ADD MLOAD ISZERO ISZERO DUP4 DUP3 ADD MSTORE PUSH1 0x60 PUSH2 0x1AA6 PUSH1 0x40 DUP5 ADD MLOAD PUSH1 0x80 PUSH1 0x40 DUP6 ADD MSTORE PUSH1 0x80 DUP5 ADD SWAP1 PUSH2 0x20AC JUMP JUMPDEST SWAP3 DUP2 DUP8 DUP1 PUSH1 0xA0 SHL SUB SWAP2 ADD MLOAD AND SWAP2 ADD MSTORE SWAP7 ADD SWAP3 ADD SWAP3 ADD DUP6 SWAP5 SWAP4 SWAP2 SWAP3 PUSH2 0x1A4F JUMP JUMPDEST PUSH1 0x3 PUSH1 0x20 PUSH1 0x1 SWAP3 PUSH1 0x40 MLOAD PUSH2 0x1AD8 DUP2 PUSH2 0x20ED JUMP JUMPDEST PUSH1 0xFF DUP7 SLOAD PUSH5 0xFFFFFFFFFF DUP2 AND DUP4 MSTORE PUSH1 0x28 SHR AND ISZERO ISZERO DUP4 DUP3 ADD MSTORE PUSH2 0x1AFB DUP6 DUP8 ADD PUSH2 0x2234 JUMP JUMPDEST PUSH1 0x40 DUP3 ADD MSTORE DUP5 DUP1 PUSH1 0xA0 SHL SUB PUSH1 0x2 DUP8 ADD SLOAD AND PUSH1 0x60 DUP3 ADD MSTORE DUP2 MSTORE ADD SWAP3 ADD SWAP3 ADD SWAP2 SWAP1 PUSH2 0x1A1F JUMP JUMPDEST CALLVALUE PUSH2 0x275 JUMPI PUSH1 0x20 CALLDATASIZE PUSH1 0x3 NOT ADD SLT PUSH2 0x275 JUMPI PUSH1 0x20 PUSH2 0x1B4C PUSH1 0x4 CALLDATALOAD PUSH1 0x0 MSTORE PUSH1 0x0 PUSH1 0x20 MSTORE PUSH1 0x1 PUSH1 0x40 PUSH1 0x0 KECCAK256 ADD SLOAD SWAP1 JUMP JUMPDEST PUSH1 0x40 MLOAD SWAP1 DUP2 MSTORE RETURN JUMPDEST CALLVALUE PUSH2 0x275 JUMPI PUSH1 0x0 CALLDATASIZE PUSH1 0x3 NOT ADD SLT PUSH2 0x275 JUMPI PUSH1 0x20 PUSH1 0x40 MLOAD PUSH32 0x3C897272FB756004D8A8588422A9CE6E04768B2D705BBDE7A87CEB35E9B9C5D9 DUP2 MSTORE RETURN JUMPDEST CALLVALUE PUSH2 0x275 JUMPI PUSH1 0x40 CALLDATASIZE PUSH1 0x3 NOT ADD SLT PUSH2 0x275 JUMPI PUSH2 0x1BA8 PUSH2 0x2095 JUMP JUMPDEST PUSH1 0x24 CALLDATALOAD SWAP1 PUSH1 0x1 PUSH1 0x1 PUSH1 0x78 SHL SUB NOT AND PUSH1 0x0 MSTORE PUSH1 0x6 PUSH1 0x20 MSTORE PUSH1 0x40 PUSH1 0x0 KECCAK256 SWAP1 DUP2 SLOAD DUP2 LT ISZERO PUSH2 0x275 JUMPI PUSH2 0x1BD6 SWAP2 PUSH2 0x21C8 JUMP JUMPDEST POP PUSH5 0xFFFFFFFFFF DUP2 SLOAD AND PUSH2 0x1BEC PUSH1 0x1 DUP4 ADD PUSH2 0x2234 JUMP JUMPDEST SWAP2 PUSH2 0x9D2 PUSH2 0x1BFC PUSH1 0x2 DUP4 ADD PUSH2 0x2234 JUMP JUMPDEST SWAP2 PUSH1 0x3 PUSH1 0x1 DUP1 PUSH1 0xA0 SHL SUB SWAP2 ADD SLOAD AND SWAP2 PUSH2 0x1C27 PUSH1 0x40 MLOAD SWAP6 DUP7 SWAP6 DUP7 MSTORE PUSH1 0x80 PUSH1 0x20 DUP8 ADD MSTORE PUSH1 0x80 DUP7 ADD SWAP1 PUSH2 0x20AC JUMP JUMPDEST SWAP1 DUP5 DUP3 SUB PUSH1 0x40 DUP7 ADD MSTORE PUSH2 0x20AC JUMP JUMPDEST CALLVALUE PUSH2 0x275 JUMPI PUSH1 0x80 CALLDATASIZE PUSH1 0x3 NOT ADD SLT PUSH2 0x275 JUMPI PUSH2 0x1C4E PUSH2 0x2095 JUMP JUMPDEST PUSH1 0x24 CALLDATALOAD PUSH1 0x1 PUSH1 0x1 PUSH1 0x40 SHL SUB DUP2 GT PUSH2 0x275 JUMPI PUSH2 0x1C6D SWAP1 CALLDATASIZE SWAP1 PUSH1 0x4 ADD PUSH2 0x215F JUMP JUMPDEST PUSH1 0x44 CALLDATALOAD SWAP2 PUSH2 0x1CB1 PUSH2 0x1C7C PUSH2 0x21B5 JUMP JUMPDEST SWAP2 PUSH1 0x1 PUSH1 0x1 PUSH1 0x78 SHL SUB NOT AND SWAP2 DUP3 PUSH1 0x0 MSTORE PUSH1 0x1 PUSH1 0x20 MSTORE PUSH2 0x1CA9 PUSH1 0x1 DUP1 PUSH1 0xA0 SHL SUB PUSH1 0x40 PUSH1 0x0 KECCAK256 SLOAD AND ISZERO ISZERO PUSH2 0x2355 JUMP JUMPDEST PUSH2 0x300 PUSH2 0x246D JUMP JUMPDEST DUP1 PUSH1 0x0 MSTORE PUSH1 0x4 PUSH1 0x20 MSTORE PUSH1 0x40 PUSH1 0x0 KECCAK256 SWAP3 PUSH1 0x40 MLOAD PUSH2 0x1CCC DUP2 PUSH2 0x20ED JUMP JUMPDEST PUSH5 0xFFFFFFFFFF TIMESTAMP AND DUP2 MSTORE PUSH1 0x20 DUP2 ADD SWAP5 DUP5 DUP7 MSTORE PUSH1 0x40 DUP3 ADD DUP4 DUP2 MSTORE PUSH1 0x60 DUP4 ADD SWAP2 CALLER DUP4 MSTORE DUP1 SLOAD PUSH1 0x1 PUSH1 0x40 SHL DUP2 LT ISZERO PUSH2 0x59E JUMPI PUSH2 0x1D0A SWAP2 PUSH1 0x1 DUP3 ADD DUP2 SSTORE PUSH2 0x21C8 JUMP JUMPDEST SWAP4 SWAP1 SWAP4 PUSH2 0x5B4 JUMPI PUSH5 0xFFFFFFFFFF DUP1 SWAP2 MLOAD AND AND PUSH5 0xFFFFFFFFFF NOT DUP5 SLOAD AND OR DUP4 SSTORE PUSH1 0x1 DUP4 ADD SWAP7 MLOAD SWAP7 DUP8 MLOAD PUSH1 0x1 PUSH1 0x1 PUSH1 0x40 SHL SUB DUP2 GT PUSH2 0x59E JUMPI PUSH2 0x1D4A DUP3 SLOAD PUSH2 0x21FA JUMP JUMPDEST PUSH1 0x1F DUP2 GT PUSH2 0x1E8F JUMPI JUMPDEST POP PUSH1 0x20 PUSH1 0x1F DUP3 GT PUSH1 0x1 EQ PUSH2 0x1E04 JUMPI SWAP1 DUP1 PUSH1 0x3 SWAP6 SWAP5 SWAP4 SWAP3 PUSH32 0xB1BCDA13EA12FA1C32987F644B92E31AF28A5DEBFC6DBC5E8F090AA9AE21CBBE SWAP12 PUSH1 0x0 SWAP3 PUSH2 0x1DF9 JUMPI JUMPDEST POP POP DUP2 PUSH1 0x1 SHL SWAP2 PUSH1 0x0 NOT SWAP1 DUP8 SHL SHR NOT AND OR SWAP1 SSTORE JUMPDEST MLOAD PUSH1 0x2 DUP5 ADD SSTORE MLOAD SWAP2 ADD DUP1 SLOAD PUSH1 0x1 PUSH1 0x1 PUSH1 0xA0 SHL SUB NOT AND PUSH1 0x1 PUSH1 0x1 PUSH1 0xA0 SHL SUB SWAP3 SWAP1 SWAP3 AND SWAP2 SWAP1 SWAP2 OR SWAP1 SSTORE PUSH1 0x40 MLOAD SWAP2 DUP3 MSTORE PUSH1 0x60 PUSH1 0x20 DUP4 ADD DUP2 SWAP1 MSTORE SWAP2 SWAP3 DUP4 SWAP3 PUSH2 0x1DEE SWAP2 SWAP1 DUP5 ADD SWAP1 PUSH2 0x20AC JUMP JUMPDEST SWAP1 PUSH1 0x40 DUP4 ADD MSTORE SUB SWAP1 LOG1 STOP JUMPDEST ADD MLOAD SWAP1 POP DUP12 DUP1 PUSH2 0x1D93 JUMP JUMPDEST PUSH1 0x1F NOT DUP3 AND SWAP10 DUP4 PUSH1 0x0 MSTORE DUP2 PUSH1 0x0 KECCAK256 SWAP11 PUSH1 0x0 JUMPDEST DUP2 DUP2 LT PUSH2 0x1E77 JUMPI POP SWAP11 PUSH1 0x1 SWAP3 DUP5 SWAP3 PUSH1 0x3 SWAP9 SWAP8 SWAP7 SWAP6 PUSH32 0xB1BCDA13EA12FA1C32987F644B92E31AF28A5DEBFC6DBC5E8F090AA9AE21CBBE SWAP15 LT PUSH2 0x1E5F JUMPI JUMPDEST POP POP POP DUP2 SHL ADD SWAP1 SSTORE PUSH2 0x1DA7 JUMP JUMPDEST ADD MLOAD PUSH1 0x0 NOT DUP4 DUP10 SHL PUSH1 0xF8 AND SHR NOT AND SWAP1 SSTORE DUP12 DUP1 DUP1 PUSH2 0x1E52 JUMP JUMPDEST DUP4 DUP4 ADD MLOAD DUP14 SSTORE PUSH1 0x1 SWAP1 SWAP13 ADD SWAP12 PUSH1 0x20 SWAP4 DUP5 ADD SWAP4 ADD PUSH2 0x1E16 JUMP JUMPDEST DUP3 PUSH1 0x0 MSTORE PUSH1 0x20 PUSH1 0x0 KECCAK256 PUSH1 0x1F DUP4 ADD PUSH1 0x5 SHR DUP2 ADD SWAP2 PUSH1 0x20 DUP5 LT PUSH2 0x1ECD JUMPI JUMPDEST PUSH1 0x1F ADD PUSH1 0x5 SHR ADD SWAP1 JUMPDEST DUP2 DUP2 LT PUSH2 0x1EC1 JUMPI POP PUSH2 0x1D53 JUMP JUMPDEST PUSH1 0x0 DUP2 SSTORE PUSH1 0x1 ADD PUSH2 0x1EB4 JUMP JUMPDEST SWAP1 SWAP2 POP DUP2 SWAP1 PUSH2 0x1EAB JUMP JUMPDEST CALLVALUE PUSH2 0x275 JUMPI PUSH1 0x20 CALLDATASIZE PUSH1 0x3 NOT ADD SLT PUSH2 0x275 JUMPI PUSH1 0x1 PUSH1 0x1 PUSH1 0x78 SHL SUB NOT PUSH2 0x1EF9 PUSH2 0x2095 JUMP JUMPDEST AND PUSH1 0x0 MSTORE PUSH1 0x6 PUSH1 0x20 MSTORE PUSH1 0x40 PUSH1 0x0 KECCAK256 DUP1 SLOAD SWAP1 PUSH2 0x1F13 DUP3 PUSH2 0x233E JUMP JUMPDEST SWAP2 PUSH2 0x1F21 PUSH1 0x40 MLOAD SWAP4 DUP5 PUSH2 0x213E JUMP JUMPDEST DUP1 DUP4 MSTORE PUSH1 0x20 DUP4 ADD DUP1 SWAP3 PUSH1 0x0 MSTORE PUSH1 0x20 PUSH1 0x0 KECCAK256 PUSH1 0x0 SWAP2 JUMPDEST DUP4 DUP4 LT PUSH2 0x1FE5 JUMPI DUP5 DUP7 PUSH1 0x40 MLOAD SWAP2 DUP3 SWAP2 PUSH1 0x20 DUP4 ADD SWAP1 PUSH1 0x20 DUP5 MSTORE MLOAD DUP1 SWAP2 MSTORE PUSH1 0x40 DUP4 ADD SWAP1 PUSH1 0x40 DUP2 PUSH1 0x5 SHL DUP6 ADD ADD SWAP3 SWAP2 PUSH1 0x0 SWAP1 JUMPDEST DUP3 DUP3 LT PUSH2 0x1F75 JUMPI POP POP POP POP SUB SWAP1 RETURN JUMPDEST SWAP2 SWAP4 PUSH1 0x1 SWAP2 SWAP4 SWAP6 POP PUSH1 0x20 DUP1 SWAP2 PUSH1 0x3F NOT DUP10 DUP3 SUB ADD DUP6 MSTORE DUP8 MLOAD SWAP1 PUSH5 0xFFFFFFFFFF DUP3 MLOAD AND DUP2 MSTORE PUSH1 0x60 PUSH2 0x1FC6 PUSH2 0x1FB4 DUP6 DUP6 ADD MLOAD PUSH1 0x80 DUP8 DUP7 ADD MSTORE PUSH1 0x80 DUP6 ADD SWAP1 PUSH2 0x20AC JUMP JUMPDEST PUSH1 0x40 DUP6 ADD MLOAD DUP5 DUP3 SUB PUSH1 0x40 DUP7 ADD MSTORE PUSH2 0x20AC JUMP JUMPDEST SWAP3 DUP2 DUP8 DUP1 PUSH1 0xA0 SHL SUB SWAP2 ADD MLOAD AND SWAP2 ADD MSTORE SWAP7 ADD SWAP3 ADD SWAP3 ADD DUP6 SWAP5 SWAP4 SWAP2 SWAP3 PUSH2 0x1F66 JUMP JUMPDEST PUSH1 0x4 PUSH1 0x20 PUSH1 0x1 SWAP3 PUSH1 0x40 MLOAD PUSH2 0x1FF8 DUP2 PUSH2 0x20ED JUMP JUMPDEST PUSH5 0xFFFFFFFFFF DUP7 SLOAD AND DUP2 MSTORE PUSH2 0x200E DUP6 DUP8 ADD PUSH2 0x2234 JUMP JUMPDEST DUP4 DUP3 ADD MSTORE PUSH2 0x201E PUSH1 0x2 DUP8 ADD PUSH2 0x2234 JUMP JUMPDEST PUSH1 0x40 DUP3 ADD MSTORE DUP5 DUP1 PUSH1 0xA0 SHL SUB PUSH1 0x3 DUP8 ADD SLOAD AND PUSH1 0x60 DUP3 ADD MSTORE DUP2 MSTORE ADD SWAP3 ADD SWAP3 ADD SWAP2 SWAP1 PUSH2 0x1F36 JUMP JUMPDEST CALLVALUE PUSH2 0x275 JUMPI PUSH1 0x20 CALLDATASIZE PUSH1 0x3 NOT ADD SLT PUSH2 0x275 JUMPI PUSH1 0x4 CALLDATALOAD SWAP1 PUSH4 0xFFFFFFFF PUSH1 0xE0 SHL DUP3 AND DUP1 SWAP3 SUB PUSH2 0x275 JUMPI PUSH1 0x20 SWAP2 PUSH4 0x7965DB0B PUSH1 0xE0 SHL DUP2 EQ SWAP1 DUP2 ISZERO PUSH2 0x2084 JUMPI JUMPDEST POP ISZERO ISZERO DUP2 MSTORE RETURN JUMPDEST PUSH4 0x1FFC9A7 PUSH1 0xE0 SHL EQ SWAP1 POP DUP4 PUSH2 0x207D JUMP JUMPDEST PUSH1 0x4 CALLDATALOAD SWAP1 PUSH1 0x1 PUSH1 0x1 PUSH1 0x78 SHL SUB NOT DUP3 AND DUP3 SUB PUSH2 0x275 JUMPI JUMP JUMPDEST SWAP2 SWAP1 DUP3 MLOAD SWAP3 DUP4 DUP3 MSTORE PUSH1 0x0 JUMPDEST DUP5 DUP2 LT PUSH2 0x20D8 JUMPI POP POP DUP3 PUSH1 0x0 PUSH1 0x20 DUP1 SWAP5 SWAP6 DUP5 ADD ADD MSTORE PUSH1 0x1F DUP1 NOT SWAP2 ADD AND ADD ADD SWAP1 JUMP JUMPDEST DUP1 PUSH1 0x20 DUP1 SWAP3 DUP5 ADD ADD MLOAD DUP3 DUP3 DUP7 ADD ADD MSTORE ADD PUSH2 0x20B7 JUMP JUMPDEST PUSH1 0x80 DUP2 ADD SWAP1 DUP2 LT PUSH1 0x1 PUSH1 0x1 PUSH1 0x40 SHL SUB DUP3 GT OR PUSH2 0x59E JUMPI PUSH1 0x40 MSTORE JUMP JUMPDEST PUSH1 0xA0 DUP2 ADD SWAP1 DUP2 LT PUSH1 0x1 PUSH1 0x1 PUSH1 0x40 SHL SUB DUP3 GT OR PUSH2 0x59E JUMPI PUSH1 0x40 MSTORE JUMP JUMPDEST PUSH1 0x60 DUP2 ADD SWAP1 DUP2 LT PUSH1 0x1 PUSH1 0x1 PUSH1 0x40 SHL SUB DUP3 GT OR PUSH2 0x59E JUMPI PUSH1 0x40 MSTORE JUMP JUMPDEST SWAP1 PUSH1 0x1F DUP1 NOT SWAP2 ADD AND DUP2 ADD SWAP1 DUP2 LT PUSH1 0x1 PUSH1 0x1 PUSH1 0x40 SHL SUB DUP3 GT OR PUSH2 0x59E JUMPI PUSH1 0x40 MSTORE JUMP JUMPDEST DUP2 PUSH1 0x1F DUP3 ADD SLT ISZERO PUSH2 0x275 JUMPI DUP1 CALLDATALOAD SWAP1 PUSH1 0x1 PUSH1 0x1 PUSH1 0x40 SHL SUB DUP3 GT PUSH2 0x59E JUMPI PUSH1 0x40 MLOAD SWAP3 PUSH2 0x2193 PUSH1 0x1F DUP5 ADD PUSH1 0x1F NOT AND PUSH1 0x20 ADD DUP6 PUSH2 0x213E JUMP JUMPDEST DUP3 DUP5 MSTORE PUSH1 0x20 DUP4 DUP4 ADD ADD GT PUSH2 0x275 JUMPI DUP2 PUSH1 0x0 SWAP3 PUSH1 0x20 DUP1 SWAP4 ADD DUP4 DUP7 ADD CALLDATACOPY DUP4 ADD ADD MSTORE SWAP1 JUMP JUMPDEST PUSH1 0x64 CALLDATALOAD SWAP1 PUSH4 0xFFFFFFFF DUP3 AND DUP3 SUB PUSH2 0x275 JUMPI JUMP JUMPDEST DUP1 SLOAD DUP3 LT ISZERO PUSH2 0x21E4 JUMPI PUSH1 0x0 MSTORE PUSH1 0x20 PUSH1 0x0 KECCAK256 SWAP1 PUSH1 0x2 SHL ADD SWAP1 PUSH1 0x0 SWAP1 JUMP JUMPDEST PUSH4 0x4E487B71 PUSH1 0xE0 SHL PUSH1 0x0 MSTORE PUSH1 0x32 PUSH1 0x4 MSTORE PUSH1 0x24 PUSH1 0x0 REVERT JUMPDEST SWAP1 PUSH1 0x1 DUP3 DUP2 SHR SWAP3 AND DUP1 ISZERO PUSH2 0x222A JUMPI JUMPDEST PUSH1 0x20 DUP4 LT EQ PUSH2 0x2214 JUMPI JUMP JUMPDEST PUSH4 0x4E487B71 PUSH1 0xE0 SHL PUSH1 0x0 MSTORE PUSH1 0x22 PUSH1 0x4 MSTORE PUSH1 0x24 PUSH1 0x0 REVERT JUMPDEST SWAP2 PUSH1 0x7F AND SWAP2 PUSH2 0x2209 JUMP JUMPDEST SWAP1 PUSH1 0x40 MLOAD SWAP2 DUP3 PUSH1 0x0 DUP3 SLOAD SWAP3 PUSH2 0x2248 DUP5 PUSH2 0x21FA JUMP JUMPDEST DUP1 DUP5 MSTORE SWAP4 PUSH1 0x1 DUP2 AND SWAP1 DUP2 ISZERO PUSH2 0x22B6 JUMPI POP PUSH1 0x1 EQ PUSH2 0x226F JUMPI JUMPDEST POP PUSH2 0x226D SWAP3 POP SUB DUP4 PUSH2 0x213E JUMP JUMPDEST JUMP JUMPDEST SWAP1 POP PUSH1 0x0 SWAP3 SWAP2 SWAP3 MSTORE PUSH1 0x20 PUSH1 0x0 KECCAK256 SWAP1 PUSH1 0x0 SWAP2 JUMPDEST DUP2 DUP4 LT PUSH2 0x229A JUMPI POP POP SWAP1 PUSH1 0x20 PUSH2 0x226D SWAP3 DUP3 ADD ADD CODESIZE PUSH2 0x2260 JUMP JUMPDEST PUSH1 0x20 SWAP2 SWAP4 POP DUP1 PUSH1 0x1 SWAP2 SLOAD DUP4 DUP6 DUP10 ADD ADD MSTORE ADD SWAP2 ADD SWAP1 SWAP2 DUP5 SWAP3 PUSH2 0x2281 JUMP JUMPDEST SWAP1 POP PUSH1 0x20 SWAP3 POP PUSH2 0x226D SWAP5 SWAP2 POP PUSH1 0xFF NOT AND DUP3 DUP5 ADD MSTORE ISZERO ISZERO PUSH1 0x5 SHL DUP3 ADD ADD CODESIZE PUSH2 0x2260 JUMP JUMPDEST PUSH1 0x24 CALLDATALOAD SWAP1 PUSH1 0x1 PUSH1 0x1 PUSH1 0xA0 SHL SUB DUP3 AND DUP3 SUB PUSH2 0x275 JUMPI JUMP JUMPDEST DUP1 SLOAD DUP3 LT ISZERO PUSH2 0x21E4 JUMPI PUSH1 0x0 MSTORE PUSH1 0x20 PUSH1 0x0 KECCAK256 ADD SWAP1 PUSH1 0x0 SWAP1 JUMP JUMPDEST DUP1 SLOAD DUP3 LT ISZERO PUSH2 0x21E4 JUMPI PUSH1 0x0 MSTORE PUSH1 0x5 PUSH1 0x20 PUSH1 0x0 KECCAK256 SWAP2 MUL ADD SWAP1 PUSH1 0x0 SWAP1 JUMP JUMPDEST DUP1 SLOAD DUP3 LT ISZERO PUSH2 0x21E4 JUMPI PUSH1 0x0 MSTORE PUSH1 0x3 PUSH1 0x20 PUSH1 0x0 KECCAK256 SWAP2 MUL ADD SWAP1 PUSH1 0x0 SWAP1 JUMP JUMPDEST PUSH1 0x1 PUSH1 0x1 PUSH1 0x40 SHL SUB DUP2 GT PUSH2 0x59E JUMPI PUSH1 0x5 SHL PUSH1 0x20 ADD SWAP1 JUMP JUMPDEST ISZERO PUSH2 0x235C JUMPI JUMP JUMPDEST PUSH1 0x40 MLOAD PUSH3 0x461BCD PUSH1 0xE5 SHL DUP2 MSTORE PUSH1 0x20 PUSH1 0x4 DUP3 ADD MSTORE PUSH1 0x12 PUSH1 0x24 DUP3 ADD MSTORE PUSH18 0x159253881B9BDD081C9959DA5CDD195C9959 PUSH1 0x72 SHL PUSH1 0x44 DUP3 ADD MSTORE PUSH1 0x64 SWAP1 REVERT JUMPDEST ISZERO PUSH2 0x239D JUMPI JUMP JUMPDEST PUSH1 0x40 MLOAD PUSH3 0x461BCD PUSH1 0xE5 SHL DUP2 MSTORE PUSH1 0x20 PUSH1 0x4 DUP3 ADD MSTORE PUSH1 0x11 PUSH1 0x24 DUP3 ADD MSTORE PUSH17 0x43616E206F6E6C7920696E637265617365 PUSH1 0x78 SHL PUSH1 0x44 DUP3 ADD MSTORE PUSH1 0x64 SWAP1 REVERT JUMPDEST DUP1 SLOAD PUSH1 0x1 PUSH1 0x40 SHL DUP2 LT ISZERO PUSH2 0x59E JUMPI PUSH2 0x23F3 SWAP2 PUSH1 0x1 DUP3 ADD DUP2 SSTORE PUSH2 0x22EE JUMP JUMPDEST PUSH2 0x5B4 JUMPI DUP2 MLOAD DUP2 SLOAD PUSH1 0x20 DUP5 ADD MLOAD PUSH1 0x40 SWAP1 SWAP5 ADD MLOAD PUSH5 0xFFFFFFFFFF PUSH1 0xC8 SHL PUSH1 0xC8 SWAP2 SWAP1 SWAP2 SHL AND PUSH5 0xFFFFFFFFFF PUSH1 0xA0 SHL PUSH1 0xA0 SWAP6 SWAP1 SWAP6 SHL SWAP5 SWAP1 SWAP5 AND PUSH1 0x1 PUSH1 0x1 PUSH1 0xA0 SHL SUB SWAP1 SWAP3 AND PUSH1 0x1 PUSH1 0x1 PUSH1 0xF0 SHL SUB NOT SWAP1 SWAP2 AND OR OR SWAP2 SWAP1 SWAP2 OR SWAP1 SSTORE JUMP JUMPDEST SWAP1 DUP2 SLOAD SWAP2 PUSH1 0x1 PUSH1 0x40 SHL DUP4 LT ISZERO PUSH2 0x59E JUMPI DUP3 PUSH2 0x6B5 SWAP2 PUSH1 0x1 PUSH2 0x226D SWAP6 ADD DUP2 SSTORE PUSH2 0x22EE JUMP JUMPDEST CALLER PUSH1 0x0 SWAP1 DUP2 MSTORE PUSH32 0x6FE1BB14D02F81E030135933D6023DBD36C2E2ED183A7B09E9D38179A58924EF PUSH1 0x20 MSTORE PUSH1 0x40 SWAP1 KECCAK256 SLOAD PUSH1 0xFF AND ISZERO PUSH2 0x24A6 JUMPI JUMP JUMPDEST PUSH4 0xE2517D3F PUSH1 0xE0 SHL PUSH1 0x0 MSTORE CALLER PUSH1 0x4 MSTORE PUSH32 0x1AC05CDED273D7237DFBBD305BBD7CD47A33EB42BF9F7D2307B7784016772FC0 PUSH1 0x24 MSTORE PUSH1 0x44 PUSH1 0x0 REVERT JUMPDEST CALLER PUSH1 0x0 SWAP1 DUP2 MSTORE PUSH32 0xAE3EA78A97FE5B1BD5FDBBDC9C84C9ED28A6275870601051EEAB4A1EEF61EE4C PUSH1 0x20 MSTORE PUSH1 0x40 SWAP1 KECCAK256 SLOAD PUSH1 0xFF AND ISZERO PUSH2 0x2518 JUMPI JUMP JUMPDEST PUSH4 0xE2517D3F PUSH1 0xE0 SHL PUSH1 0x0 MSTORE CALLER PUSH1 0x4 MSTORE PUSH32 0x3C897272FB756004D8A8588422A9CE6E04768B2D705BBDE7A87CEB35E9B9C5D9 PUSH1 0x24 MSTORE PUSH1 0x44 PUSH1 0x0 REVERT JUMPDEST PUSH1 0x0 DUP2 DUP2 MSTORE PUSH1 0x20 DUP2 DUP2 MSTORE PUSH1 0x40 DUP1 DUP4 KECCAK256 CALLER DUP5 MSTORE SWAP1 SWAP2 MSTORE SWAP1 KECCAK256 SLOAD PUSH1 0xFF AND ISZERO PUSH2 0x2574 JUMPI POP JUMP JUMPDEST PUSH4 0xE2517D3F PUSH1 0xE0 SHL PUSH1 0x0 MSTORE CALLER PUSH1 0x4 MSTORE PUSH1 0x24 MSTORE PUSH1 0x44 PUSH1 0x0 REVERT JUMPDEST PUSH1 0x0 DUP2 DUP2 MSTORE PUSH1 0x20 DUP2 DUP2 MSTORE PUSH1 0x40 DUP1 DUP4 KECCAK256 PUSH1 0x1 PUSH1 0x1 PUSH1 0xA0 SHL SUB DUP7 AND DUP5 MSTORE SWAP1 SWAP2 MSTORE SWAP1 KECCAK256 SLOAD PUSH1 0xFF AND PUSH2 0x2610 JUMPI PUSH1 0x0 DUP2 DUP2 MSTORE PUSH1 0x20 DUP2 DUP2 MSTORE PUSH1 0x40 DUP1 DUP4 KECCAK256 PUSH1 0x1 PUSH1 0x1 PUSH1 0xA0 SHL SUB SWAP6 SWAP1 SWAP6 AND DUP1 DUP5 MSTORE SWAP5 SWAP1 SWAP2 MSTORE DUP2 KECCAK256 DUP1 SLOAD PUSH1 0xFF NOT AND PUSH1 0x1 OR SWAP1 SSTORE CALLER SWAP3 SWAP2 SWAP1 PUSH32 0x2F8788117E7EFF1D82E926EC794901D17C78024A50270940304540A733656F0D SWAP1 DUP1 LOG4 PUSH1 0x1 SWAP1 JUMP JUMPDEST POP POP PUSH1 0x0 SWAP1 JUMP JUMPDEST PUSH1 0x0 DUP2 DUP2 MSTORE PUSH1 0x20 DUP2 DUP2 MSTORE PUSH1 0x40 DUP1 DUP4 KECCAK256 PUSH1 0x1 PUSH1 0x1 PUSH1 0xA0 SHL SUB DUP7 AND DUP5 MSTORE SWAP1 SWAP2 MSTORE SWAP1 KECCAK256 SLOAD PUSH1 0xFF AND ISZERO PUSH2 0x2610 JUMPI PUSH1 0x0 DUP2 DUP2 MSTORE PUSH1 0x20 DUP2 DUP2 MSTORE PUSH1 0x40 DUP1 DUP4 KECCAK256 PUSH1 0x1 PUSH1 0x1 PUSH1 0xA0 SHL SUB SWAP6 SWAP1 SWAP6 AND DUP1 DUP5 MSTORE SWAP5 SWAP1 SWAP2 MSTORE DUP2 KECCAK256 DUP1 SLOAD PUSH1 0xFF NOT AND SWAP1 SSTORE CALLER SWAP3 SWAP2 SWAP1 PUSH32 0xF6391F5C32D9C69D2A47EA670B442974B53935D1EDC7FD64EB21E047A839171B SWAP1 DUP1 LOG4 PUSH1 0x1 SWAP1 JUMP INVALID LOG2 PUSH5 0x6970667358 0x22 SLT KECCAK256 0xE0 CHAINID 0xA6 0xF8 0xED 0x4E CREATE2 CREATE 0x22 0xD5 ORIGIN 0x21 SWAP1 PC MULMOD PUSH9 0xA3EC2BB6CF9DCC0BCC PUSH24 0x94907795C19264736F6C634300081C0033AD3228B676F7D3 0xCD TIMESTAMP DUP5 0xA5 PREVRANDAO EXTCODEHASH OR CALL SWAP7 0x2B CALLDATASIZE 0xE4 SWAP2 0xB3 EXP BLOCKHASH 0xB2 BLOCKHASH PC BLOBHASH 0xE5 SWAP8 0xBA PUSH0 0xB5 "},"methodIdentifiers":{"DEFAULT_ADMIN_ROLE()":"a217fddf","MECHANIC_ROLE()":"6b22d13b","POLICE_ROLE()":"2087a00e","accs(bytes17,uint256)":"0bc85cc1","addDiagnostic(bytes17,string,bytes32,uint32)":"0b5a9c72","addInspection(bytes17,bool,string,uint32)":"fe3b9666","addMaintenance(bytes17,bytes32,string,bytes32,uint32)":"525099a2","diags(bytes17,uint256)":"d44e31f4","getAccidents(bytes17)":"04ba13c0","getDiagnostics(bytes17)":"bf5fef4b","getInspections(bytes17)":"29065817","getMaintenance(bytes17)":"8ea00aa2","getMyVehicles()":"5e7215bc","getOwnershipHistory(bytes17)":"fef085a9","getRoleAdmin(bytes32)":"248a9ca3","getVehicleMeta(bytes17)":"98f876e0","grantRole(bytes32,address)":"2f2ff15d","hasRole(bytes32,address)":"91d14854","insps(bytes17,uint256)":"cf8ba805","maints(bytes17,uint256)":"ae632b76","meta(bytes17)":"b523cc5c","ownerToVins(address,uint256)":"304038f8","owners(bytes17,uint256)":"85a41751","registerVehicle(bytes17,address,uint16,uint32)":"ba493906","renounceRole(bytes32,address)":"36568abe","reportAccident(bytes17,string,string)":"923071de","revokeRole(bytes32,address)":"d547741f","supportsInterface(bytes4)":"01ffc9a7","transferOwnership(bytes17,address)":"ebf7b5f8"}}}}}